S00F0000546573744170702E7372656354
S11300000C9456000C9473000C9473000C947300BD
S11300100C9473000C9473000C9473000C94730090
S11300200C9473000C9473000C9473000C94730080
S11300300C9473000C9473000C9473000C94730070
S11300400C9473000C9473000C9473000C94730060
S11300500C9473000C9473000C9473000C94730050
S11300600C9473000C9473000C9473000C94730040
S11300700C9473000C9473000C9473000C94730030
S11300800C9473000C9473000C9473000C94730020
S11300900C9473000C9473000C9473000C94730010
S11300A00C9473000C9473000C94730011241FBE01
S11300B0CFEFDAE0DEBFCDBF11E0A0E0B1E0EEE1CA
S11300C0F1E002C005900D92A030B107D9F711E01C
S11300D0A0E0B1E001C01D92A030B107E1F70E9499
S11300E080000C948D000C940000009741F0E7EE22
S11300F0F3E03197F1F700C000000197C1F70895CC
S11301008FEF8AB9589A88EB9BE00E947500589843
S111011088EB9BE00E947500F5CFF894FFCFBA
S9030000FC
