:1000000014C02EC02DC02CC02BC003C135C128C0C8
:1000100027C026C025C024C023C022C021C020C0C4
:100020001FC01EC01DC01CC01BC011241FBECFE5B9
:10003000D1E0DEBFCDBF10E0A0E6B0E0EEEFF9E02A
:1000400002C005900D92A439B107D9F710E0A4E9D8
:10005000B0E001C01D92A939B107E1F74AD1CDC482
:10006000CFCF12B883E389B986E083B988E18AB932
:1000700008955D9BFECF8CB9089520E030E0FC012F
:10008000E20FF31FE081EE2341F02F5F3F4F5D9BB6
:10009000FECFECB92034310591F7089580E690E069
:1000A000ECDF0895089587FD959A86FD929A85FD67
:1000B000C69A84FDD99A83FD939A82FDC29A81FDE6
:1000C000D89A80FD969A089595989298C698D9984E
:1000D0009398C298D898969808951F93182FF4DF94
:1000E000103319F48091630042C0113319F48091E8
:1000F00064003DC0123319F48091650038C0133399
:1001000019F48091660033C0143319F480916700AC
:100110002EC0153319F48091680029C0163319F4E4
:100120008091690024C0173319F480916A001FC0C0
:10013000183319F480916B001AC0193319F48091A7
:100140006C0015C0153419F480916E0010C016347F
:1001500019F480916F000BC01F3519F48091730062
:1001600006C0112311F08EE702C0809174009BDF5E
:100170001F910895EF92FF920F931F937C01C198F6
:10018000FC018081AADF00ED17E0C8010197F1F7BB
:10019000C19A9498F7018181A0DFC8010197F1F716
:1001A000949AC398F701828198DFC8010197F1F70B
:1001B000C39AC498F701838190DFC8010197F1F7D2
:1001C000C49A1F910F91FF90EF900895959A80E245
:1001D0009EE4FC013197F1F7929AFC013197F1F717
:1001E000C69AFC013197F1F7D99AFC013197F1F7E2
:1001F000939AFC013197F1F7C29AFC013197F1F71C
:10020000D89AFC013197F1F7969A0197F1F75CDFE4
:1002100008951F920F920FB60F9211240F900FBEE8
:100220000F901F9018958A3010F481E0089584365D
:1002300010F083E0089582E0089500D000D000D04F
:10024000EDB7FEB73196ADB7BEB712969C938E93BD
:10025000119785E890E093838283772767FD7095F7
:1002600075836483EBD08DB79EB706960FB6F8946E
:100270009EBF0FBE8DBF08951F920F920FB60F92B3
:1002800011242F933F934F935F936F937F938F939B
:100290009F93AF93BF93EF93FF93809195009091BD
:1002A00096004E9761F480E390E0E3DE81E0809376
:1002B00097001092980010929600109295008091ED
:1002C00095009091960001969093960080939500EA
:1002D000FF91EF91BF91AF919F918F917F916F911E
:1002E0005F914F913F912F910F900FBE0F901F90F4
:1002F0001895DF92EF92FF920F931F93CF93DF93A6
:100300008AB383608ABB87B3846487BB81B38C66FE
:1003100081BB87B38A6187BB8C9A88B38A6188BBAB
:10032000949A9FDE82E889BF12BE85E083BF8EB5B6
:1003300085608EBD1DBC1CBC789488E8E82E80E0EA
:10034000F82EC5E8D0E006E4DD24D3941FE58091C3
:100350009700882309F466C080E590E08ADE81E397
:1003600090E087DE82E390E084DE00D000D000D011
:10037000EDB7FEB73196ADB7BEB71296FC92EE92CE
:100380001197D383C28380918C00992787FD909524
:100390009583848353D090918C002DB73EB72A5F0C
:1003A0003F4F0FB6F8943EBF0FBE2DBF9A3010F4EA
:1003B00081E005C0943610F083E001C082E08093B4
:1003C000940000938D00813039F410938E001093C7
:1003D0008F008091880015C0823049F410938E0000
:1003E0008091880080938F00809189000AC080915D
:1003F000880080938E008091890080938F00809187
:100400008A0080939000009391009F5F90938C00EE
:1004100083E390E02EDE8EE890E0ACDE1092970051
:10042000D092980080919800882309F490CF82E5BB
:1004300090E01FDE8EE890E09DDE89CFAEE0B0E078
:10044000E3E2F2E0B1C20D891E8986E08C831A8353
:1004500009838FEF9FE79E838D839E01275E3F4F29
:10046000CE0101966F89788DA90109D02F81388539
:10047000020F131FF80110822E96E4E0B1C2ABE028
:10048000B0E0E4E4F2E082C24C012B015A01FC012D
:1004900017821682838181FD03C06FEF7FEFBEC19B
:1004A0001E010894211C311C9FE3692EF401338145
:1004B000F20133FD859133FF81912F01882309F4E7
:1004C000AAC1853239F433FD859133FF81912F0123
:1004D000853221F490E0B401BBD1E8CF982FFF24FE
:1004E000EE247724FFE1FF15D0F09B3269F09C32B7
:1004F00028F4903259F0933291F40EC09D3249F0B5
:10050000903369F441E02AC052E0F52A84E0F82AE9
:100510002EC098E0F92A2BC0E0E1FE2A28C0F7FCA3
:100520002FC0292F20532A30A0F4F6FE08C0872DB3
:1005300090E06AE070E018D2782E720E18C08E2D0E
:1005400090E06AE070E010D2E82EE20EF0E2FF2ABE
:100550000EC09E3229F4F6FC5EC140E4F42A07C0C6
:100560009C3619F450E8F52A02C0983649F4F20195
:1005700033FD959133FF91912F01992309F0B2CF6B
:10058000892F8554833018F08052833030F444E052
:1005900050E0A40EB51E69820FC0933631F0933738
:1005A00079F0933509F052C01FC0F501808189832D
:1005B00042E050E0A40EB51E610101E010E011C060
:1005C000F501C080D180F6FC03C06FEF7FEF02C061
:1005D000672D70E042E050E0A40EB51EC6012DD19B
:1005E0008C015FE7F52213C0F501C080D180F6FCD5
:1005F00003C06FEF7FEF02C0672D70E042E050E074
:10060000A40EB51EC6010ED18C0150E8F52AF3FEEA
:1006100006C018C080E290E0B4011AD1EA948E2D91
:1006200090E008171907B0F30DC0F601F7FC8591AB
:10063000F7FE81916F0190E0B4010AD1E110EA94D4
:10064000015010400115110581F7E2C0943611F0F8
:10065000993661F5F7FE08C0F501208131814281AC
:10066000538184E090E00AC0F501808191819C0172
:10067000442737FD4095542F82E090E0A80EB91E24
:100680009FE6F92257FF09C0509540953095219576
:100690003F4F4F4F5F4FE0E8FE2ACA01B901A10169
:1006A0002AE030E001D1D82ED2183FC0953729F486
:1006B0001F2D1F7E2AE030E01DC01F2D197F9F36A1
:1006C00061F0903720F4983509F0A5C00FC090373D
:1006D00039F0983709F09FC004C028E030E00AC024
:1006E000106114FD146020E130E004C014FD1660B8
:1006F00020E132E017FF08C0F5016081718182813D
:10070000938144E050E008C0F50180819181BC01F3
:1007100080E090E042E050E0A40EB51EA101C4D0FC
:10072000D82ED2188FE7F82EF122F6FE0BC05EEF1E
:10073000F522D71438F4F4FE07C0F2FC05C08FEEA2
:10074000F82202C01D2D01C0172DF4FE0DC0FE01C0
:10075000ED0DF11D8081803319F499EEF92208C066
:100760001F5FF2FE05C003C08F2D867809F01F5F62
:100770000F2DF3FC13C0F0FE0EC01E1510F07D2CE3
:100780000AC07D2C7E0C711A1E2D05C080E290E0FF
:10079000B4015ED01F5F1E15C8F304C01E1510F40F
:1007A000E11A01C0EE2404FF0EC080E390E0B40122
:1007B0004FD002FF1BC001FD03C088E790E00EC0D0
:1007C00088E590E00BC0802F867881F001FF02C0A1
:1007D0008BE201C080E2F7FC8DE290E0B40138D0FA
:1007E00005C080E390E0B40133D07A94D714C8F305
:1007F000DA94F101ED0DF11D808190E0B40128D073
:10080000DD20B1F705C080E290E0B40121D0EA9488
:10081000EE20C9F74BCEF40166817781CB012B9690
:10082000E2E1D0C0FC010590615070400110D8F7A2
:10083000809590958E0F9F1F0895FC016150704028
:1008400001900110D8F7809590958E0F9F1F089505
:100850000F931F93CF93DF938C01EB018B8181FF6B
:100860001BC082FF0DC02E813F818C819D81281786
:10087000390764F4E881F9810193F983E88306C0BC
:10088000E885F985802F0995892B31F48E819F8128
:1008900001969F838E8302C00FEF1FEFC801DF9187
:1008A000CF911F910F910895FA01AA27283061F185
:1008B000203191F1E8946F936E7F6E5F7F4F8F4F81
:1008C0009F4FAF4FB1E040D0B4E03ED0670F781FEC
:1008D000891F9A1FA11D680F791F8A1F911DA11DD5
:1008E0006A0F711D811D911DA11D22D009F468940C
:1008F0003F91062E000C3019000C000C3019305DB1
:100900003193CEF6CF010895462F4770405D419355
:10091000B3E00FD0C9F7F6CF462F4F70405D4A3392
:1009200018F0495D31FD4052419302D0A9F7EACF5A
:10093000B4E0A6959795879577956795BA95C9F789
:1009400000976105710508959B01AC010A2E06947C
:100950005795479537952795BA95C9F7620F731F35
:10096000841F951FA01D08955527002480FF02C0F5
:10097000060E571F660F771F6115710521F09695BA
:100980008795009799F7952F802D08952F923F9284
:100990004F925F926F927F928F929F92AF92BF928F
:1009A000CF92DF92EF92FF920F931F93CF93DF933B
:1009B000CDB7DEB7CA1BDB0B0FB6F894DEBF0FBE98
:1009C000CDBF09942A88398848885F846E847D84E5
:1009D0008C849B84AA84B984C884DF80EE80FD80E7
:1009E0000C811B81AA81B981CE0FD11D0FB6F8945D
:0E09F000DEBF0FBECDBFED010895F894FFCF1E
:1009FE000A0D00FC60DAF266B6BEE0FEF69C9E8E34
:100A0E002AB67E10007E306D79335B5F707F7B4E31
:100A1E004F47155B3F256400393939000146393996
:040A2E003946000045
:00000001FF
