:020000040000FA
:060000007AEF00F012008F
:020006000000F8
:08000800060EF66E000EF76E05
:10001000000EF86E0F010900F550056F0900F5504C
:10002000066F03E1056701D03DD00900F550006F70
:100030000900F550016F0900F550026F0900090031
:10004000F550E96E0900F550EA6E09000900090053
:10005000F550036F0900F550046F09000900F6CF51
:1000600007FFF7CF08FFF8CF09FF00CFF6FF01CF5A
:10007000F7FF02CFF8FF0F01035302E1045307E03B
:100080000900F550EE6E0307F8E20407F9D707CF31
:10009000F6FF08CFF7FF09CFF8FF0F010507000EA5
:0600A000065BBFD7120051
:0A00A600FF0EE350036EEF0E01D0D1
:1000B000F30EE76EE72E5AEF00F00C0E026EE76AC1
:1000C000E72E60EF00F0022E5FEF00F0032E58EFF6
:0400D00000F012002A
:0C00D400380EF36E00EE00F00F0E01D8A5
:1000E0001200EA6002D0EE6AFCD7F350E960120019
:0400F000EE6AFCD7E1
:0C00F4001EEE00F02EEE00F0F86A019CF9
:1001000004EC00F092EC00F088EC00F0FBD7120059
:10011000929089808970190EE66E53EC00F0E552DA
:04012000F9D71200F9
:020124001200C7
:020000040030CA
:0100010029D5
:010003003CC0
:0100060005F4
:00000001FF
