:100000000C9456000C9473000C9473000C947300C1
:100010000C9473000C9473000C9473000C94730094
:100020000C9473000C9473000C9473000C94730084
:100030000C9473000C9473000C9473000C94730074
:100040000C9473000C9473000C9473000C94730064
:100050000C941F020C9473000C9473000C94F9011F
:100060000C9473000C9473000C9473000C94730044
:100070000C9473000C9429020C9473000C9473007C
:100080000C9473000C9473000C9473000C94730024
:100090000C9473000C9473000C9473000C94730014
:1000A0000C9473000C9473000C94730011241FBE05
:1000B000CFEFDAE0DEBFCDBF12E0A0E0B1E0EAE2D0
:1000C000F9E102C005900D92A033B107D9F712E013
:1000D000A0E3B2E001C01D92AB33B107E1F70E948B
:1000E00076020C94930C0C9400001092CD0083E0E7
:1000F0008093CC0086E08093CA0088E18093C90099
:100100000895982F8091C80085FFFCCF9093CE0072
:100110000895AC0120E030E0FA01E20FF31FE08126
:10012000EE2359F02F5F3F4F8091C80085FFFCCF31
:10013000E093CE002034310579F7089580E091E016
:100140000E94890008950F931F93DF93CF93CDB73B
:10015000DEB72A970FB6F894DEBF0FBECDBF2DB71E
:100160003EB7285030400FB6F8943EBF0FBE2DBFAB
:10017000EDB7FEB731968E010F5F1F4FADB7BEB71B
:1001800012961C930E93119723E031E03383228360
:1001900064837583868397830E94F2092DB73EB7E7
:1001A000285F3F4F0FB6F8943EBF0FBE2DBFC8016A
:1001B0000E9489002A960FB6F894DEBF0FBECDBF0D
:1001C000CF91DF911F910F910895EF92FF920F93BE
:1001D0001F937A018B010E948900C801B7010E9418
:1001E000A3000E949E001F910F91FF90EF90089531
:1001F000A0E0B0E0BC01CD010E944D0726EF38E23F
:100200004CE950E40E94230520E030E040E251E454
:100210000E941D0620E030E048E452E40E94C5043C
:100220000895463469F420E030E040E052E40E9452
:10023000C50424E036E54EE05FE30E9423050EC0CE
:10024000433461F426E636E646EE5FE30E9423057A
:1002500020E030E040E052E40E94F604A62F2A2F6E
:10026000372F482F592FB901CA010895089587FDE6
:10027000469A86FD479A85FD8F9A84FD8E9A83FD66
:100280008D9A82FD8C9A81FD899A80FD889A0895C5
:10029000469847988F988E988D988C9889988898CA
:1002A00008951F93182F0E944801103319F480916C
:1002B000070147C0113319F48091080142C012337D
:1002C00019F4809109013DC0133319F480910A019A
:1002D00038C0143319F480910B0133C0153319F46D
:1002E00080910C012EC0163319F480910D0129C0A4
:1002F000173319F480910E0124C0183319F480913A
:100300000F011FC0193319F4809110011AC0153460
:1003100019F48091120115C0163419F4809113015B
:1003200010C01F3519F4809117010BC0112319F467
:100330008091180106C01D3211F08EE702C0809135
:1003400019010E9437011F910895EF92FF920F93B8
:100350001F937C012C98FC0180810E94510100EDCB
:1003600017E0C8010197F1F72C9A2D98F7018181C8
:100370000E945101C8010197F1F72D9A2E98F701BB
:1003800082810E945101C8010197F1F72E9A2F989E
:10039000F70183810E945101C8010197F1F72F9A5B
:1003A0001F910F91FF90EF900895469A80E29EE48E
:1003B000FC013197F1F7479AFC013197F1F78F9AD9
:1003C000FC013197F1F78E9AFC013197F1F78D9A84
:1003D000FC013197F1F78C9AFC013197F1F7899A7A
:1003E000FC013197F1F7889A0197F1F70E944801D3
:1003F00008951F920F920FB60F9211248F939F931F
:100400008091370290913802079749F481E08093F8
:10041000390210923A0210923802109237028091FB
:1004200037029091380201969093380280933702F8
:100430009F918F910F900FBE0F901F9018951F9254
:100440000F920FB60F9211240F900FBE0F901F90B6
:1004500018951F920F920FB60F9211248F939F93AE
:1004600080917800909179009093310280933002CE
:100470009F918F910F900FBE0F901F9018959C0128
:100480000996439790F0C9018D599F4F873C91057C
:1004900018F422E030E00BC029513C4F2F5C37406C
:1004A00018F423E030E003C0089521E030E0C901F2
:1004B000089500D000D000D0EDB7FEB73196ADB7AB
:1004C000BEB712969C938E9311978AE191E0938325
:1004D0008283758364830E94F2098DB79EB7069666
:1004E0000FB6F8949EBF0FBE8DBF08953F924F92F6
:1004F0005F926F927F928F929F92AF92BF92CF92B4
:10050000DF920F93CF93DF9387B1806C87B980B36D
:10051000836F80BB84B1806F84B985B1806F85B9EA
:100520000E94750081E080936E0080936F0016BC7E
:10053000109285001092840085E085BD8091810035
:1005400082608093810080917A00876080937A0036
:1005500080917C00806480937C0080917B0080622D
:1005600080937B0080917C00826080937C008091EE
:100570007A00806280937A0080917B00866080930D
:100580007B0080917A00806880937A0080917A0065
:10059000886080937A0078943DE1432E31E0532EB9
:1005A0002AE1622E21E0722E96E4892E33243394C0
:1005B0008FE5982E80913902882309F490C08091AC
:1005C0003002909131020E94F800609332027093E1
:1005D0003302809334029093350243E40E94110168
:1005E0006093320270933302809334029093350209
:1005F00000D000D000D0CDB7DEB72196EDB7FEB762
:10060000528241827B826A820E94F9067D836C83DA
:100610000E94F209A0903202B0903302C0903402DE
:10062000D09035028DB79EB706960FB6F8949EBF50
:100630000FBE8DBFC601B5010E94F906DC01CB01DA
:100640000E943F02082F8093360280922101C6014A
:10065000B50120E030E040E050E00E94C906882368
:1006600074F0013039F4909222019092230180912C
:100670001D0129C0023029F0033039F50DC00130C9
:1006800049F49092220180911D0180932301809171
:100690001E0119C0023059F480911D01809322017E
:1006A00080911E018093230180911F010CC00330B3
:1006B00061F480911E018093220180911F0180933B
:1006C000230180912001809324018092250182E200
:1006D00091E00E94A5011092390230923A02809175
:1006E0003A02882309F466CF82E291E00E94A501D4
:1006F00061CFA0E0B0E0EFE7F3E00C94BB09DC01D0
:100700002B01FA019C91923008F439C1EB018881E8
:10071000823008F433C1943069F4843009F02FC179
:1007200011969C9111978981981709F428C1A7E225
:10073000B1E025C1843009F421C18230A9F492309E
:1007400009F01DC19A01AD0188E0EA010990AE01EE
:10075000E90109929E018150C1F7E2018981119658
:100760009C918923818308C1923009F407C11296B4
:100770002D903C901397EB018A819B811496AD904C
:10078000BD90CD90DC901797EC80FD800E811F818D
:100790009101281B390BB90137FF04C06627772761
:1007A000621B730B603271050CF061C012161306E8
:1007B0006CF537014801062E04C09694879477940F
:1007C00067940A94D2F721E030E040E050E004C0A2
:1007D000220F331F441F551F6A95D2F72150304016
:1007E000404050402E213F21402351232115310507
:1007F0004105510521F021E030E040E050E0790171
:100800008A01E628F728082919293CC0232BD1F1B1
:10081000260E371E35014601062E04C09694879495
:10082000779467940A94D2F721E030E040E050E0FA
:1008300004C0220F331F441F551F6A95D2F7215061
:100840003040404050402A213B214C215D21211560
:1008500031054105510521F021E030E040E050E054
:1008600059016A01A628B728C828D9280BC08215C3
:1008700093052CF01C01AA24BB24650103C0EE24BF
:10088000FF24870111969C91D20111968C919817A3
:1008900009F445C0992339F0A80197012A193B09A9
:1008A0004C095D0906C0A60195012E193F09400BB0
:1008B000510B57FD08C01182338222822483358375
:1008C000468357831DC081E081833382228288273B
:1008D0009927DC01821B930BA40BB50B84839583B2
:1008E000A683B7830DC0220F331F441F551F2483D7
:1008F00035834683578382819381019793838283D3
:100900002481358146815781DA01C9010197A10906
:10091000B1098F5F9F4FAF4FBF4328F30BC0918347
:1009200033822282EA0CFB1C0C1D1D1DE482F58221
:100930000683178383E08083248135814681578134
:1009400057FF1AC0C901AA2797FDA095BA2F817039
:100950009070A070B0705695479537952795822B6B
:10096000932BA42BB52B84839583A683B783828195
:100970009381019693838283DF0101C0D201CD016F
:10098000CDB7DEB7E2E10C94D709A0E2B0E0EBEC22
:10099000F4E00C94C70969837A838B839C832D834D
:1009A0003E834F835887E9E0EE2EF12CEC0EFD1EBE
:1009B000CE010196B7010E94EA088E010F5E1F4F1B
:1009C000CE010596B8010E94EA088A8991E089273C
:1009D0008A8BC701B801AE01475E5F4F0E94790361
:1009E0000E941508A096E6E00C94E309A0E2B0E0AE
:1009F000ECEFF4E00C94C70969837A838B839C83C2
:100A00002D833E834F835887F9E0EF2EF12CEC0EB7
:100A1000FD1ECE010196B7010E94EA088E010F5E0D
:100A20001F4FCE010596B8010E94EA08C701B80120
:100A3000AE01475E5F4F0E9479030E941508A096A1
:100A4000E6E00C94E309A0E2B0E0E9E2F5E00C9402
:100A5000BB0969837A838B839C832D833E834F8379
:100A60005887CE010196BE01675F7F4F0E94EA085A
:100A7000CE010596BE016F5E7F4F0E94EA08998500
:100A8000923088F089898230C8F0943019F482302D
:100A900051F404C0843029F4923081F487E291E06B
:100AA000C6C0923049F420E09A858A89981321E0E3
:100AB0002A87CE010996BBC0823049F420E09A858E
:100AC0008A89981321E02A8BCE014196B0C02D84EB
:100AD0003E844F8458886D887E888F88988CEE2459
:100AE000FF248701AA24BB24650140E050E060E0B8
:100AF00070E0E0E0F0E0C10181709070892BE9F0D6
:100B0000E60CF71C081D191D9A01AB012A0D3B1DAF
:100B10004C1D5D1D80E090E0A0E0B0E0E614F7041D
:100B20000805190520F481E090E0A0E0B0E0BA01EA
:100B3000A901480F591F6A1F7B1FAA0CBB1CCC1CA4
:100B4000DD1C97FE08C081E090E0A0E0B0E0A82A9C
:100B5000B92ACA2ADB2A3196E032F10549F0660C3F
:100B6000771C881C991C5694479437942794C3CFBC
:100B7000FA85EA892B893C898B859C85280F391F4A
:100B80002E5F3F4F17C0CA0181709070892B61F0B2
:100B900016950795F794E79480E090E0A0E0B0E820
:100BA000E82AF92A0A2B1B2B7695679557954795C6
:100BB0002F5F3F4F77FDE7CF0CC0440F551F661FD7
:100BC000771F17FD4160EE0CFF1C001F111F215005
:100BD0003040403090E0590790E0690790E4790791
:100BE00060F32B8F3C8FDB01CA018F779070A07070
:100BF000B07080349105A105B10561F447FD0AC0CC
:100C0000E114F1040105110529F0405C5F4F6F4FBD
:100C10007F4F40781A8EFE1711F081E08A8F4D8F3A
:100C20005E8F6F8F78A383E0898FCE0149960E94F3
:100C30001508A096E2E10C94D709A8E1B0E0E3E240
:100C4000F6E00C94C30969837A838B839C832D839C
:100C50003E834F835887B9E0EB2EF12CEC0EFD1E3E
:100C6000CE010196B7010E94EA088E010F5E1F4F68
:100C7000CE010596B8010E94EA082985223008F4C1
:100C80007EC03989323010F4B8017CC08A859A89D7
:100C900089278A87243011F0223031F4231709F094
:100CA0006EC067E271E06EC0343039F41D861E8676
:100CB0001F86188A1C861B8604C0323021F484E00B
:100CC0008987B7015FC02B853C858B899C89281B50
:100CD000390B3C872B87ED84FE840F851889AD88FE
:100CE000BE88CF88D88CEA14FB040C051D0540F49F
:100CF000EE0CFF1C001F111F215030403C872B873A
:100D000020E030E040E050E080E090E0A0E0B0E49F
:100D100060E070E0EA14FB040C051D0540F0282B90
:100D2000392B4A2B5B2BEA18FB080C091D09B695D9
:100D3000A79597958795EE0CFF1C001F111F6F5FFD
:100D40007F4F6F31710531F7DA01C9018F779070EC
:100D5000A070B07080349105A105B10561F427FD44
:100D60000AC0E114F1040105110529F0205C3F4F90
:100D70004F4F5F4F20782D873E874F87588BBE019E
:100D8000675F7F4FCB010E9415086896EAE00C94DC
:100D9000DF09A8E1B0E0EFECF6E00C94C709698345
:100DA0007A838B839C832D833E834F83588789E08E
:100DB000E82EF12CEC0EFD1ECE010196B7010E942B
:100DC000EA088E010F5E1F4FCE010596B8010E9402
:100DD000EA088985823040F08989823028F0C7018D
:100DE000B8010E94620901C08FEF6896E6E00C949A
:100DF000E309ACE0B0E0EFEFF6E00C94CB096983D7
:100E00007A838B839C83CE010196BE016B5F7F4FFB
:100E10000E94EA088D81823061F1823050F1843085
:100E200021F48E81882351F12EC02F81388537FD22
:100E300020C06E812F3131051CF06623F9F023C0EC
:100E40008EE190E0821B930B29853A854B855C856A
:100E500004C056954795379527958A95D2F766230E
:100E6000B1F050954095309521953F4F4F4F5F4FD2
:100E70000EC020E030E040E050E009C02FEF3FEF2F
:100E80004FEF5FE704C020E030E040E050E8B901F8
:100E9000CA012C96E2E00C94E709A8E0B0E0E3E593
:100EA000F7E00C94C3097B018C0161157105810584
:100EB000910519F482E0898360C083E089838EE123
:100EC000C82ED12CDC82CB82ED82FE820F83188764
:100ED000C801B7010E94C607FC013197F7FF3BC06C
:100EE000222733272E1B3F0B57016801022E04C017
:100EF000D694C794B794A7940A94D2F740E050E0F0
:100F000060E070E081E090E0A0E0B0E004C0880F15
:100F1000991FAA1FBB1F2A95D2F70197A109B109F2
:100F20008E219F21A023B1230097A105B10521F0B7
:100F300041E050E060E070E04A295B296C297D299E
:100F40004D835E836F8378878EE190E08E1B9F0BCD
:100F50009C838B8312C0309781F00E2E04C0EE0C60
:100F6000FF1C001F111F0A94D2F7ED82FE820F832F
:100F70001887CE1ADF0ADC82CB821A82CE01019654
:100F80000E9415082896EAE00C94DF09EF92FF9280
:100F90000F931F937B018C0180E0E81680E0F80638
:100FA00081E0080780E0180788F48FEFE816F10465
:100FB0000105110531F028F088E090E0A0E0B0E0F4
:100FC00017C080E090E0A0E0B0E012C080E0E8163A
:100FD00080E0F80680E0080781E0180728F088E143
:100FE00090E0A0E0B0E004C080E190E0A0E0B0E0DC
:100FF00020E230E040E050E0281B390B4A0B5B0B4D
:1010000004C016950795F794E7948A95D2F7F701EF
:10101000E15DFE4F8081281B310941095109C90159
:101020001F910F91FF90EF900895DF92EF92FF9242
:101030000F931F93FC01E480F58006811781D18016
:101040008081823048F480E090E0A0E1B0E0E82ABE
:10105000F92A0A2B1B2BA5C0843009F49FC08230CB
:1010600021F4EE24FF24870105C0E114F1040105F9
:10107000110519F4E0E0F0E096C0628173819FEF02
:10108000623879070CF05BC022E83FEF261B370B74
:101090002A3131052CF020E030E040E050E02AC059
:1010A000B801A701022E04C076956795579547951C
:1010B0000A94D2F781E090E0A0E0B0E004C0880F8D
:1010C000991FAA1FBB1F2A95D2F70197A109B10941
:1010D0008E219F21A023B1230097A105B10521F006
:1010E00081E090E0A0E0B0E09A01AB01282B392B21
:1010F0004A2B5B2BDA01C9018F779070A070B0701A
:1011000080349105A105B10539F427FF09C0205CA1
:101110003F4F4F4F5F4F04C0215C3F4F4F4F5F4FDA
:10112000E0E0F0E02030A0E03A07A0E04A07A0E4C9
:101130005A0710F0E1E0F0E079018A0127C0603839
:10114000710564F5FB01E158FF4FD801C7018F77A6
:101150009070A070B07080349105A105B10539F48C
:10116000E7FE0DC080E490E0A0E0B0E004C08FE3B3
:1011700090E0A0E0B0E0E80EF91E0A1F1B1F17FF69
:1011800005C016950795F794E794319687E0169574
:101190000795F794E7948A95D1F705C0EE24FF24CC
:1011A0008701EFEFF0E06E2F679566276795902F28
:1011B0009F77D794DD24D7948E2F8695492F462B81
:1011C000582F5D29B701CA011F910F91FF90EF9031
:1011D000DF900895FC01DB01408151812281622F63
:1011E0006F7770E0221F2227221F9381892F880F9B
:1011F000822B282F30E0991F9927991F11969C93D5
:10120000119721153105A9F54115510561057105A4
:1012100011F482E037C082E89FEF13969C938E937F
:1012200012979A01AB0167E0220F331F441F551F2D
:101230006A95D1F783E08C930DC0220F331F441FB2
:10124000551F12968D919C911397019713969C931D
:101250008E931297203080E0380780E0480780E4C2
:10126000580758F314962D933D934D935C9317971D
:1012700008952F3F310579F4411551056105710538
:1012800019F484E08C93089564FF03C081E08C938B
:1012900012C01C9210C02F57304013963C932E93CF
:1012A000129783E08C9387E0440F551F661F771FCA
:1012B0008A95D1F7706414964D935D936D937C93EA
:1012C000179708951F93DC01FB019C91923008F45D
:1012D00047C08081823008F443C0943051F41196A5
:1012E0001C91843099F58181682F70E0611B710930
:1012F0003FC0843021F0923031F48230B9F18181E5
:10130000882389F12DC011961C9111978230F1F03C
:1013100081811817D9F412962D913C9113978281EF
:1013200093818217930794F028173907BCF014961D
:101330008D919D910D90BC91A02D24813581468188
:101340005781281739074A075B0718F4112341F022
:101350000AC082179307A407B50740F4112319F0B8
:1013600061E070E005C06FEF7FEF02C060E070E009
:10137000CB011F9108952F923F924F925F926F92EF
:101380007F928F929F92AF92BF92CF92DF92EF9215
:10139000FF920F931F93CF93DF93CDB7DEB7CA1B96
:1013A000DB0B0FB6F894DEBF0FBECDBF09942A88C1
:1013B000398848885F846E847D848C849B84AA8469
:1013C000B984C884DF80EE80FD800C811B81AA81F6
:1013D000B981CE0FD11D0FB6F894DEBF0FBECDBFC1
:1013E000ED010895AEE0B0E0E8EFF9E00C94C90932
:1013F0000D891E8986E08C831A8309838FEF9FE70E
:101400009E838D839E01275E3F4FCE0101966F899B
:10141000788DA9010E94160A2F813885020F131FAB
:10142000F80110822E96E4E00C94E509ABE0B0E000
:10143000ECE1FAE00C94BB093C012B015A01FC01E0
:1014400017821682838181FD03C06FEF7FEFC6C1D3
:101450009AE0892E1E010894211C311CF30123817E
:10146000F20123FD859123FF81912F01882309F447
:10147000B2C1853239F423FD859123FF81912F017B
:10148000853229F490E0B3010E94090CE7CF982F30
:10149000FF24EE249924FFE1FF15D0F09B3269F080
:1014A0009C3228F4903259F0933291F40EC09D3260
:1014B00049F0903369F441E024C052E0F52A84E019
:1014C000F82A28C098E0F92A25C0E0E1FE2A22C0C7
:1014D000F7FC29C0892F80538A3070F4F6FE05C0CE
:1014E000989C902C1124980E15C0E89CE02C112497
:1014F000E80EF0E2FF2A0EC09E3229F4F6FC6BC122
:1015000040E4F42A07C09C3619F450E8F52A02C0DA
:10151000983649F4F20123FD959123FF91912F0113
:10152000992309F0B8CF892F8554833018F0805261
:10153000833038F444E050E0A40EB51E5FE35983D5
:101540000FC0933631F0933779F0933509F056C0D8
:1015500020C0F5018081898342E050E0A40EB51ED1
:10156000610101E010E012C0F501C080D180F6FCFD
:1015700003C06FEF7FEF02C0692D70E042E050E0E2
:10158000A40EB51EC6010E94FE0B8C015FE7F5227A
:1015900014C0F501C080D180F6FC03C06FEF7FEF6F
:1015A00002C0692D70E042E050E0A40EB51EC601F5
:1015B0000E94F30B8C0150E8F52AF3FE07C01AC015
:1015C00080E290E0B3010E94090CEA948E2D90E035
:1015D00008171907A8F30EC0F601F7FC8591F7FE6E
:1015E00081916F0190E0B3010E94090CE110EA942F
:1015F000015010400115110579F7EAC0943611F039
:10160000993669F5F7FE08C0F501208131814281E4
:10161000538184E090E00AC0F501808191819C01B2
:10162000442737FD4095542F82E090E0A80EB91E64
:101630009FE6F92257FF09C05095409530952195B6
:101640003F4F4F4F5F4FE0E8FE2ACA01B901A101A9
:101650002AE030E00E94350CD82ED21840C09537D1
:1016600029F41F2D1F7E2AE030E01DC01F2D197F99
:101670009F3661F0903720F4983509F0ACC00FC068
:10168000903739F0983709F0A6C004C028E030E060
:101690000AC0106114FD146020E130E004C014FDA4
:1016A000166020E132E017FF08C0F501608171810A
:1016B0008281938144E050E008C0F50180819181EE
:1016C000BC0180E090E042E050E0A40EB51EA10114
:1016D0000E94350CD82ED2188FE7F82EF122F6FE94
:1016E0000BC05EEFF522D91438F4F4FE07C0F2FC0B
:1016F00005C08FEEF82202C01D2D01C0192DF4FE89
:101700000DC0FE01ED0DF11D8081803319F499EEBD
:10171000F92208C01F5FF2FE05C003C08F2D867836
:1017200009F01F5F0F2DF3FC14C0F0FE0FC01E1553
:1017300010F09D2C0BC09D2C9E0C911A1E2D06C0E6
:1017400080E290E0B3010E94090C1F5F1E15C0F3F8
:1017500004C01E1510F4E11A01C0EE2404FF0FC0EE
:1017600080E390E0B3010E94090C02FF1DC001FD5F
:1017700003C088E790E00EC088E590E00BC0802FA2
:10178000867891F001FF02C08BE201C080E2F7FC95
:101790008DE290E0B3010E94090C06C080E390E066
:1017A000B3010E94090C9A94D914C0F3DA94F101A0
:1017B000ED0DF11D808190E0B3010E94090CDD2048
:1017C000A9F706C080E290E0B3010E94090CEA94F8
:1017D000EE20C1F743CEF30166817781CB012B96D2
:1017E000E2E10C94D709FC010590615070400110B2
:1017F000D8F7809590958E0F9F1F0895FC0161503A
:10180000704001900110D8F7809590958E0F9F1F22
:1018100008950F931F93CF93DF938C01EB018B817E
:1018200081FF1BC082FF0DC02E813F818C819D8175
:101830002817390764F4E881F9810193F983E88373
:1018400006C0E885F985802F0995892B31F48E81B2
:101850009F8101969F838E8302C00FEF1FEFC80107
:10186000DF91CF911F910F910895FA01AA27283097
:1018700051F1203181F1E8946F936E7F6E5F7F4F5D
:101880008F4F9F4FAF4FB1E03ED0B4E03CD0670FD9
:10189000781F891F9A1FA11D680F791F8A1F911D2C
:1018A000A11D6A0F711D811D911DA11D20D009F47C
:1018B00068943F912AE0269F11243019305D3193BE
:1018C000DEF6CF010895462F4770405D4193B3E0A7
:1018D0000FD0C9F7F6CF462F4F70405D4A3318F04E
:1018E000495D31FD4052419302D0A9F7EACFB4E0FF
:1018F000A6959795879577956795BA95C9F70097B7
:101900006105710508959B01AC010A2E0694579557
:10191000479537952795BA95C9F7620F731F841FAE
:0A192000951FA01D0895F894FFCF55
:10192A000A0D00256C6400FC60DAF266B6BEE0FEC1
:10193A00F69C9E8E2AB67E1000022564003939393B
:10194A000046393939460000000000000000000056
:10195A000102020303030304040404040404040547
:10196A00050505050505050505050505050505061C
:10197A0006060606060606060606060606060606FD
:10198A0006060606060606060606060606060607EC
:10199A0007070707070707070707070707070707CD
:1019AA0007070707070707070707070707070707BD
:1019BA0007070707070707070707070707070707AD
:1019CA00070707070707070707070707070707089C
:1019DA00080808080808080808080808080808087D
:1019EA00080808080808080808080808080808086D
:1019FA00080808080808080808080808080808085D
:101A0A00080808080808080808080808080808084C
:101A1A00080808080808080808080808080808083C
:101A2A00080808080808080808080808080808082C
:101A3A00080808080808080808080808080808081C
:101A4A000808080808080808080808080808080014
:00000001FF
