:1000000014C026C025C024C023C022C021C020C0E7
:100010001FC01EC01DC01CC01BC01AC019C018C004
:1000200017C016C015C014C013C011241FBECFE5E1
:10003000D1E0DEBFCDBF10E0A0E6B0E0EEE0F1E041
:1000400002C005900D92A037B107D9F717D05DC057
:10005000D7CFDF93CF9300D000D0CDB7DEB79C834E
:100060008B831A82198289819A819C838B830F905A
:100070000F900F900F90CF91DF910895DF93CF9362
:10008000CDB7DEB729970FB6F894DEBF0FBECDBF50
:1000900081E0898781E089831A821B821C821D820C
:1000A0001E821F8218868981803521F58A81833CD2
:1000B00009F58B818F3FF1F48C818F3FD9F48D81CD
:1000C0008F3FC1F48E818F3FA9F48F818F3F91F4D0
:1000D00088858F3F79F48985813011F482E08987A2
:1000E0008985823011F483E089878985833011F412
:1000F00081E0898780E090E029960FB6F894DEBF12
:0E0100000FBECDBFCF91DF910895F894FFCFD1
:10010E007E306D79335B5F707F7B4E4F47155B3F63
:00000001FF
