:100000000C9456000C9473000C9473000C947300C1
:100010000C9473000C9473000C9473000C94730094
:100020000C9473000C9473000C9473000C94730084
:100030000C9473000C9473000C9473000C94730074
:100040000C9473000C9473000C9473000C94730064
:100050000C9487010C9473000C9473000C94610150
:100060000C9473000C9473000C9473000C94730044
:100070000C9473000C9491010C9473000C94730015
:100080000C9473000C9473000C9473000C94730024
:100090000C9473000C9473000C9473000C94730014
:1000A0000C9473000C9473000C94730011241FBE05
:1000B000CFEFDAE0DEBFCDBF11E0A0E0B1E0EEEDC2
:1000C000FAE002C005900D92A433B107D9F711E010
:1000D000A4E3B1E001C01D92AA33B107E1F70E9489
:1000E000CB010C946D050C9400001092CD0083E3BD
:1000F0008093CC0086E08093CA0088E18093C90099
:100100000895982F8091C80085FFFCCF9093CE0072
:100110000895AC0120E030E0FA01E20FF31FE08126
:10012000EE2359F02F5F3F4F8091C80085FFFCCF31
:10013000E093CE002034310579F7089580E091E016
:100140000E9489000895089587FD469A86FD479A82
:1001500085FD8F9A84FD8E9A83FD8D9A82FD8C9AFF
:1001600081FD899A80FD889A0895469847988F98CE
:100170008E988D988C988998889808951F93182F39
:100180000E94B500103319F48091030142C011336D
:1001900019F4809104013DC0123319F480910501D6
:1001A00038C0133319F48091060133C0143319F4A5
:1001B000809107012EC0153319F48091080129C0E0
:1001C000163319F48091090124C0173319F4809172
:1001D0000A011FC0183319F480910B011AC019339A
:1001E00019F480910C0115C0153419F480910E0199
:1001F00010C0163419F480910F010BC01F3519F48B
:100200008091130106C0112311F08EE702C0809186
:1002100014010E94A4001F910895EF92FF920F9382
:100220001F937C012C98FC0180810E94BE0000ED90
:1002300017E0C8010197F1F72C9A2D98F7018181F9
:100240000E94BE00C8010197F1F72D9A2E98F70180
:1002500082810E94BE00C8010197F1F72E9A2F9863
:10026000F70183810E94BE00C8010197F1F72F9A20
:100270001F910F91FF90EF900895469A80E29EE4BF
:10028000FC013197F1F7479AFC013197F1F78F9A0A
:10029000FC013197F1F78E9AFC013197F1F78D9AB5
:1002A000FC013197F1F78C9AFC013197F1F7899AAB
:1002B000FC013197F1F7889A0197F1F70E94B50098
:1002C00008951F920F920FB60F9211248F939F9350
:1002D0008091360190913701079749F481E080932E
:1002E0003801109239011092370110923601809135
:1002F0003601909137010196909337018093360132
:100300009F918F910F900FBE0F901F9018951F9285
:100310000F920FB60F9211240F900FBE0F901F90E7
:1003200018951F920F920FB60F9211248F93809100
:100330007900809334018F910F900FBE0F901F9022
:1003400018958A3010F481E00895843610F083E027
:10035000089582E0089500D000D000D0EDB7FEB738
:100360003196ADB7BEB712969C938E93119785E2E6
:1003700091E093838283772767FD7095758364830B
:100380000E9495028DB79EB706960FB6F8949EBF51
:100390000FBE8DBF0895DF92EF92FF920F931F93D0
:1003A000CF93DF9387B1806C87B980B3836F80BBB5
:1003B00084B1806F84B985B1806F85B90E94750062
:1003C00081E080936E0080936F0016BC10928500D0
:1003D0001092840085E085BD8091810082608093C9
:1003E000810080917A00876080937A0080917C0000
:1003F000806480937C0080917C00806280937C008C
:1004000080917B00806280937B0080917C00826081
:1004100080937C0080917A00806280937A00809142
:100420007B00866080937B0080917A008068809357
:100430007A0080917A00886080937A00789488E2CC
:10044000E82E81E0F82EC5E2D1E006E4DD24D39465
:100450001FE580913801882309F45DC08091340143
:1004600080932C0100D000D000D0EDB7FEB73196BC
:10047000ADB7BEB71296FC92EE921197D383C283AA
:10048000848315820E949502809134012DB73EB776
:100490002A5F3F4F0FB6F8943EBF0FBE2DBF8A3084
:1004A00010F481E005C0843610F083E001C082E0E2
:1004B0008093350100932D01813039F410932E0182
:1004C00010932F018091280115C0823049F41093B8
:1004D0002E018091280180932F01809129010AC06B
:1004E0008091280180932E018091290180932F0112
:1004F00080912A01809330010093310180912C0179
:100500008F5F80932C018EE291E00E940D0110928A
:100510003801D092390180913901882309F499CFAB
:100520008EE291E00E940D0194CFAEE0B0E0EBE9E5
:10053000F2E00C9444050D891E8986E08C831A83B1
:1005400009838FEF9FE79E838D839E01275E3F4F38
:10055000CE0101966F89788DA9010E94B9022F8181
:100560003885020F131FF80110822E96E4E00C94D8
:100570006005ABE0B0E0EFEBF2E00C9436053C0137
:100580002B015A01FC0117821682838181FD03C071
:100590006FEF7FEFC6C19AE0892E1E010894211CDF
:1005A000311CF3012381F20123FD859123FF819109
:1005B0002F01882309F4B2C1853239F423FD8591D6
:1005C00023FF81912F01853229F490E0B3010E942D
:1005D000AC04E7CF982FFF24EE249924FFE1FF1508
:1005E000D0F09B3269F09C3228F4903259F093326B
:1005F00091F40EC09D3249F0903369F441E024C07B
:1006000052E0F52A84E0F82A28C098E0F92A25C0AB
:10061000E0E1FE2A22C0F7FC29C0892F80538A30EE
:1006200070F4F6FE05C0989C902C1124980E15C00D
:10063000E89CE02C1124E80EF0E2FF2A0EC09E3266
:1006400029F4F6FC6BC140E4F42A07C09C3619F487
:1006500050E8F52A02C0983649F4F20123FD95913D
:1006600023FF91912F01992309F0B8CF892F855449
:10067000833018F08052833038F444E050E0A40E08
:10068000B51E5FE359830FC0933631F0933779F08D
:10069000933509F056C020C0F5018081898342E07E
:1006A00050E0A40EB51E610101E010E012C0F5019A
:1006B000C080D180F6FC03C06FEF7FEF02C0692DD0
:1006C00070E042E050E0A40EB51EC6010E94A104F5
:1006D0008C015FE7F52214C0F501C080D180F6FCE3
:1006E00003C06FEF7FEF02C0692D70E042E050E081
:1006F000A40EB51EC6010E9496048C0150E8F52A8E
:10070000F3FE07C01AC080E290E0B3010E94AC047F
:10071000EA948E2D90E008171907A8F30EC0F60191
:10072000F7FC8591F7FE81916F0190E0B3010E9483
:10073000AC04E110EA94015010400115110579F75D
:10074000EAC0943611F0993669F5F7FE08C0F50154
:10075000208131814281538184E090E00AC0F5011B
:10076000808191819C01442737FD4095542F82E080
:1007700090E0A80EB91E9FE6F92257FF09C05095D8
:100780004095309521953F4F4F4F5F4FE0E8FE2A4F
:10079000CA01B901A1012AE030E00E94D804D82E94
:1007A000D21840C0953729F41F2D1F7E2AE030E073
:1007B0001DC01F2D197F9F3661F0903720F49835AA
:1007C00009F0ACC00FC0903739F0983709F0A6C0D7
:1007D00004C028E030E00AC0106114FD146020E17C
:1007E00030E004C014FD166020E132E017FF08C0BD
:1007F000F501608171818281938144E050E008C0FD
:10080000F50180819181BC0180E090E042E050E000
:10081000A40EB51EA1010E94D804D82ED2188FE7CD
:10082000F82EF122F6FE0BC05EEFF522D91438F453
:10083000F4FE07C0F2FC05C08FEEF82202C01D2DA9
:1008400001C0192DF4FE0DC0FE01ED0DF11D8081DA
:10085000803319F499EEF92208C01F5FF2FE05C03B
:1008600003C08F2D867809F01F5F0F2DF3FC14C095
:10087000F0FE0FC01E1510F09D2C0BC09D2C9E0C81
:10088000911A1E2D06C080E290E0B3010E94AC04D4
:100890001F5F1E15C0F304C01E1510F4E11A01C03D
:1008A000EE2404FF0FC080E390E0B3010E94AC048B
:1008B00002FF1DC001FD03C088E790E00EC088E57F
:1008C00090E00BC0802F867891F001FF02C08BE290
:1008D00001C080E2F7FC8DE290E0B3010E94AC041D
:1008E00006C080E390E0B3010E94AC049A94D9144E
:1008F000C0F3DA94F101ED0DF11D808190E0B301B8
:100900000E94AC04DD20A9F706C080E290E0B301AC
:100910000E94AC04EA94EE20C1F743CEF301668155
:100920007781CB012B96E2E10C945205FC010590F6
:10093000615070400110D8F7809590958E0F9F1FE1
:100940000895FC016150704001900110D8F7809526
:1009500090958E0F9F1F08950F931F93CF93DF9352
:100960008C01EB018B8181FF1BC082FF0DC02E81AA
:100970003F818C819D812817390764F4E881F981D2
:100980000193F983E88306C0E885F985802F0995EE
:10099000892B31F48E819F8101969F838E8302C0C3
:1009A0000FEF1FEFC801DF91CF911F910F910895B5
:1009B000FA01AA27283051F1203181F1E8946F9390
:1009C0006E7F6E5F7F4F8F4F9F4FAF4FB1E03ED036
:1009D000B4E03CD0670F781F891F9A1FA11D680FD4
:1009E000791F8A1F911DA11D6A0F711D811D911D07
:1009F000A11D20D009F468943F912AE0269F11247C
:100A00003019305D3193DEF6CF010895462F4770DF
:100A1000405D4193B3E00FD0C9F7F6CF462F4F703A
:100A2000405D4A3318F0495D31FD4052419302D098
:100A3000A9F7EACFB4E0A69597958795779567953E
:100A4000BA95C9F700976105710508959B01AC013E
:100A50000A2E06945795479537952795BA95C9F765
:100A6000620F731F841F951FA01D08952F923F9240
:100A70004F925F926F927F928F929F92AF92BF92AE
:100A8000CF92DF92EF92FF920F931F93CF93DF935A
:100A9000CDB7DEB7CA1BDB0B0FB6F894DEBF0FBEB7
:100AA000CDBF09942A88398848885F846E847D8404
:100AB0008C849B84AA84B984C884DF80EE80FD8006
:100AC0000C811B81AA81B981CE0FD11D0FB6F8947C
:0E0AD000DEBF0FBECDBFED010895F894FFCF3D
:100ADE000A0D00FC60DAF266B6BEE0FEF69C9E8E53
:100AEE002AB67E10007E306D79335B5F707F7B4E51
:100AFE004F47155B3F2564003939390001463939B6
:040B0E003946000064
:00000001FF
