:100000000C94EA000C9407010C9407010C9407016E
:100010000C9407010C9407010C9407010C94070140
:100020000C9407010C9407010C9407010C94070130
:100030000C9407010C9407010C9407010C94070120
:100040000C9407010C9407010C9407010C94070110
:100050000C9407010C9407010C9407010C94070100
:100060000C9407010C9407010C9407010C940701F0
:100070000C9407010C9407010C9407010C940701E0
:100080000C9407010C9407010C9407010C940701D0
:100090000C9407010C9407010C9407010C940701C0
:1000A0000C9407010C9407010C940701084AD73BF4
:1000B0003BCE016E84BCBFFDC12F3D6C74319ABD37
:1000C00056833DDA3D00C77F11BED9E4BB4C3E915B
:1000D0006BAAAABE000000803F00407A10F35A00CD
:1000E000A0724E18090010A5D4E80000E876481761
:1000F0000000E40B54020000CA9A3B000000E1F546
:1001000005000080969800000040420F000000A00B
:100110008601000000102700000000E80300000036
:10012000006400000000000A000000000001000060
:100130000000002C76D888DC674F0823DFC1DFAED3
:1001400059E1B1B796E5E3E453C63AE6519976969C
:10015000E8E6C28426EB898C9B62ED407C6FFCEF65
:10016000BC9C9F40F2BAA56FA5F490055A2AF75C93
:10017000936B6CF9676DC11BFCE0E40D47FEF52045
:10018000E6B500D0ED902E0300943577050080840D
:100190001E080000204E0A000000C80C3333333321
:1001A0000F986E12831141EF8D2114893BE655168D
:1001B000CFFEE6DB18D1844B381BF77C1D901DA4C5
:1001C000BBE424203284725E228100C9F124ECA1B8
:1001D000E53D270011241FBECFEFDAE0DEBFCDBF23
:1001E00012E0A0E0B1E0EAEBFAE202C005900D9265
:1001F000A031B107D9F712E0A0E1B2E001C01D9231
:10020000A431B107E1F70E9492040C945B150C94A1
:100210000000DF93CF93CDB7DEB7EDECF0E01082B6
:10022000ECECF0E083E08083EAECF0E086E08083B1
:10023000E9ECF0E088E18083CF91DF910895DF93CE
:10024000CF93CDB7DEB780E091E00E944101CF911E
:10025000DF910895DF93CF930F92CDB7DEB78983F7
:10026000E8ECF0E08081882F90E080729070009739
:10027000B9F3EEECF0E0898180830F90CF91DF91AC
:100280000895DF93CF9300D000D0CDB7DEB79C8325
:100290008B831A8219821AC029813A818B819C81B1
:1002A000FC01E20FF31F80818823A9F029813A81A4
:1002B0008B819C81FC01E20FF31F208189819A814F
:1002C00001969A838983822F0E942A0189819A81CB
:1002D000803491050CF30F900F900F900F90CF91F9
:1002E000DF910895DF93CF93CDB7DEB72E970FB68A
:1002F000F894DEBF0FBECDBF6B877C878D879E874E
:100300008DB79EB708970FB6F8949EBF0FBE8DBFEE
:10031000EDB7FEB73196CE0101969183808383E0DD
:1003200091E0938382838B859C85AD85BE85848394
:100330009583A683B7830E94530E8DB79EB7089608
:100340000FB6F8949EBF0FBE8DBFCE0101960E94DE
:1003500041012E960FB6F894DEBF0FBECDBFCF91F0
:10036000DF910895DF93CF9300D000D000D0CDB7B8
:10037000DEB79A8389834B835C836D837E83898117
:100380009A810E9441018B819C81AD81BE81BC011B
:10039000CD010E9472010E941F0126960FB6F894AB
:1003A000DEBF0FBECDBFCF91DF910895DF93CF9316
:1003B000CDB7DEB769970FB6F894DEBF0FBECDBFDD
:1003C0000E94250680E090E0A0E2B1E48D8B9E8B38
:1003D000AF8BB88F6D897E898F89988D2BEA3AEA29
:1003E0004AE250E40E94FD08DC01CB01898B9A8B24
:1003F000AB8BBC8B69897A898B899C8920E030E042
:1004000040E85FE30E94030B88231CF481E0888BA3
:1004100091C069897A898B899C8920E030E04FE717
:1004200053E40E94A30A18160CF07BC06D897E89E4
:100430008F89988D20E030E04AE754E40E94F70964
:10044000DC01CB018C879D87AE87BF876C857D855E
:100450008E859F8520E030E04AEF54E40E94FD083D
:10046000DC01CB0188879987AA87BB876885798556
:100470008A859B8520E030E040E85FE30E94030B23
:1004800088232CF481E090E09F838E833FC06885B1
:1004900079858A859B8520E03FEF4FE757E40E94EE
:1004A000A30A18164CF56C857D858E859F8520E006
:1004B00030E040E251E40E94FD08DC01CB01BC01C8
:1004C000CD010E942707DC01CB019F838E830FC0E3
:1004D00088EC90E09D838C838C819D810197F1F75E
:1004E0009D838C838E819F8101979F838E838E81D4
:1004F0009F81009769F724C0688579858A859B85E7
:100500000E942707DC01CB019F838E838E819F8110
:100510009B838A838A819B810197F1F79B838A83DE
:100520000FC069897A898B899C890E942707DC0121
:10053000CB01888B8889898389818A95F1F78983A2
:1005400080E090E0A0E0B0E0809310029093110270
:10055000A0931202B0931302198E81E0898F8FE16C
:1005600095E8ABE6BFE38093100290931102A0934D
:100570001202B0931302898D8295880F807E898F35
:100580008CE30E94740681E00E94DA06898D0E9445
:10059000DA060E94C6068CE30E94740682E00E947E
:1005A000DA0680E00E94DA060E94C60669960FB657
:1005B000F894DEBF0FBECDBFCF91DF9108950F93AA
:1005C0001F93DF93CF93CDB7DEB72D970FB6F89477
:1005D000DEBF0FBECDBF998788877B876A875D871F
:1005E0004C8719828CE30E94740683E00E94DA062D
:1005F0000E94C6068DE30E94740619821FC089817D
:10060000853069F48981082F10E00E941407282F93
:10061000CE010296FC01E00FF11F20830CC08981FE
:10062000082F10E00E940107282FCE010296FC013E
:10063000E00FF11F208389818F5F89838981863054
:10064000F0F20E94C6068A81882F90E0382F222778
:100650008B81882F90E0822B932BE885F9859183FD
:1006600080838C81882F90E0382F22278D81882FDE
:1006700090E0822B932BEC85FD85918380838E8186
:10068000882F90E0382F22278F81882F90E0822BAF
:10069000932BEA85FB85918380832D960FB6F89482
:1006A000DEBF0FBECDBFCF91DF911F910F91089597
:1006B000EF92FF920F931F93DF93CF93CDB7DEB7E7
:1006C00068970FB6F894DEBF0FBECDBF9C8B8B8BA7
:1006D0007E8B6D8B588F4F8B1E861D86188A1F86CA
:1006E0001A8A198ACE010D969E01215F3F4FAE01F5
:1006F0004F5E5F4FB9010E94DF028D859E85AA275C
:1007000097FDA095BA2FBC01CD010E94330BDC01EF
:10071000CB01BC01CD0126E636E647EC52E40E944F
:10072000D008DC01CB0189879A87AB87BC878F858E
:100730009889AA2797FDA095BA2FBC01CD010E94E8
:10074000330BDC01CB01BC01CD0120E030E04AE1FC
:1007500053E40E94D008DC01CB018D839E83AF83DC
:10076000B88789899A89AA2797FDA095BA2FBC01D5
:10077000CD010E94330BDC01CB01BC01CD012AE984
:1007800039E945EB51E40E94D008DC01CB018983B3
:100790009A83AB83BC8369857A858B859C8523E6A8
:1007A00037EB43E75FE30E94FD08DC01CB017C01EE
:1007B0008D016D817E818F8198852AEB31E640E045
:1007C0005BE30E94FD08DC01CB019C01AD01C80187
:1007D000B7010E94D008DC01CB017C018D01698149
:1007E0007A818B819C8122E132ED44E65CE30E94B8
:1007F000FD08DC01CB019C01AD01C801B7010E94DD
:10080000D008DC01CB01EB89FC8980839183A28332
:10081000B38369857A858B859C852AEB31E640E038
:100820005BE30E94FD08DC01CB017C018D016D8141
:100830007E818F81988521EC30E042E65FE30E9463
:10084000FD08DC01CB019C01AD01C801B7010E948C
:10085000D008DC01CB017C018D0169817A818B811B
:100860009C812EEC3DE149EF5BE30E94FD08DC0139
:10087000CB019C01AD01C801B7010E94D008DC0189
:10088000CB01ED89FE8980839183A283B38369853F
:100890007A858B859C8522E132ED44E65CE30E94FB
:1008A000FD08DC01CB017C018D016D817E818F8192
:1008B00098852EEC3DE149EF5BE30E94FD08DC01E9
:1008C000CB019C01AD01C801B7010E94D008DC0139
:1008D000CB017C018D0169817A818B819C812EE322
:1008E00030ED4EE75FE30E94FD08DC01CB019C0187
:1008F000AD01C801B7010E94D008DC01CB01EF892E
:10090000F88D80839183A283B38368960FB6F894A1
:10091000DEBF0FBECDBFCF91DF911F910F91FF9032
:10092000EF900895EF92FF920F931F93DF93CF9371
:10093000CDB7DEB7AE970FB6F894DEBF0FBECDBF12
:100940001C8A1B8A1E8A1D8A188E1F8A80E090E0EE
:10095000A0E0B0E0898F9A8FAB8FBC8F80E090E0F1
:10096000A0E0B0E08D8F9E8FAF8FB8A380E090E0C5
:10097000A0E0B0E089A39AA3ABA3BCA30E940901A5
:1009800078940E94D601CE0143969E012B5E3F4F84
:10099000AE01495E5F4FB9010E94DF02CE01499668
:1009A0009E01235E3F4FAE014F5D5F4FB9010E9434
:1009B000580380E090E0A0E0B0E08F87988BA98B8F
:1009C000BA8B8D899E89AA2797FDA095BA2FBC0165
:1009D000CD010E94330B7B018C018B899C89AA2756
:1009E00097FDA095BA2FBC01CD010E94330B9B014E
:1009F000AC01C801B7010E94860EDC01CB01BC012D
:100A0000CD0121EE3EE245E652E40E94FD08DC0104
:100A1000CB018F87988BA98BBA8B6F857889898951
:100A20009A8920E030E040E050E00E94030B8823E8
:100A300084F46F85788989899A8920E030E044EBD5
:100A400053E40E94D008DC01CB018F87988BA98BDF
:100A5000BA8B8B899C899E012B5D3F4FB9014AE07F
:100A600050E00E94320ECE0185960E94410180E244
:100A70000E942A018D899E899E012B5D3F4FB901FD
:100A80004AE050E00E94320ECE0185960E9441015C
:100A900080E20E942A018F89988D9E012B5D3F4F35
:100AA000B9014AE050E00E94320ECE0185960E94C4
:100AB000410180E20E942A010E941F01898D9A8DC6
:100AC000AB8DBC8DFE01B596BC01CD0143E025E0A8
:100AD0008F010E94110ECE0185960E94410180E295
:100AE0000E942A018D8D9E8DAF8DB8A1FE01B59615
:100AF000BC01CD0143E025E08F010E94110ECE0123
:100B000085960E94410180E20E942A0189A19AA152
:100B1000ABA1BCA1FE01B596BC01CD0143E025E02F
:100B20008F010E94110ECE0185960E94410180E244
:100B30000E942A010E941F018F859889A989BA897C
:100B4000FE01B596BC01CD0143E025E08F010E9476
:100B5000110ECE0185960E94410180E20E942A0179
:100B60000E941F0180E090E0AAEFB3E48B879C878E
:100B7000AD87BE876B857C858D859E8520E030E0C6
:100B80004AEF54E40E94FD08DC01CB018F83988773
:100B9000A987BA876F81788589859A8520E030E0BA
:100BA00040E85FE30E94030B88232CF481E090E08F
:100BB0009E838D833FC06F81788589859A8520E0EB
:100BC0003FEF4FE757E40E94A30A18164CF56B85D8
:100BD0007C858D859E8520E030E040E251E40E94D6
:100BE000FD08DC01CB01BC01CD010E942707DC011F
:100BF000CB019E838D830FC088EC90E09C838B8318
:100C00008B819C810197F1F79C838B838D819E81E1
:100C100001979E838D838D819E81009769F7B3CE66
:100C20006F81788589859A850E942707DC01CB0131
:100C30009E838D838D819E819A83898389819A8108
:100C40000197F1F79A8389839ECEDF93CF93CDB737
:100C5000DEB7E9EBF0E01082E8EBF0E088E88083B3
:100C6000CF91DF910895DF93CF9300D00F92CDB74E
:100C7000DEB78A83ECEBF0E084EA8083ECEBF0E013
:100C800080818823DCF7E9EBF0E08081887F89832D
:100C90008981883031F08981803119F081E08B833E
:100CA0001CC0EBEBF0E08A818083ECEBF0E084E8A1
:100CB0008083ECEBF0E080818823DCF7E9EBF0E067
:100CC0008081887F89838981883131F0898180346E
:100CD00019F081E08B8301C01B828B810F900F90F4
:100CE0000F90CF91DF910895DF93CF9300D0CDB7D0
:100CF000DEB78A83ECEBF0E084EA8083ECEBF0E093
:100D000080818823DCF7E9EBF0E08081887F8983AC
:100D10008981883019F08981803161F7EBEBF0E04F
:100D20008A818083ECEBF0E084E88083ECEBF0E0F8
:100D300080818823DCF7E9EBF0E08081887F89837C
:100D40008981803219F08981883571F4ECEBF0E00B
:100D500084E98083ECEBF0E08081882F90E0807163
:100D600090700097B9F7C6CF0F900F90CF91DF9199
:100D70000895DF93CF930F92CDB7DEB78983898132
:100D80000E9433060F90CF91DF910895DF93CF93A8
:100D9000CDB7DEB7ECEBF0E084E98083ECEBF0E07C
:100DA0008081882F90E0807190700097B9F7CF9183
:100DB000DF910895DF93CF9300D00F92CDB7DEB7C8
:100DC0008A83EBEBF0E08A818083ECEBF0E084E84F
:100DD0008083ECEBF0E080818823DCF7E9EBF0E046
:100DE0008081887F89838981883219F081E08B83B3
:100DF00001C01B828B810F900F900F90CF91DF91DC
:100E00000895DF93CF93CDB7DEB7ECEBF0E084EC41
:100E10008083ECEBF0E080818823DCF7EBEBF0E003
:100E20008081CF91DF910895DF93CF93CDB7DEB767
:100E3000ECEBF0E084E88083ECEBF0E08081882349
:100E4000DCF7EBEBF0E08081CF91DF910895EF923A
:100E5000FF920F931F937B018C0120E030E040E074
:100E60005FE40E94D30A88238CF0C801B70120E018
:100E700030E040E05FE40E949F080E94910B9B01DC
:100E8000AC01205030404040504806C0C801B70176
:100E90000E94910B9B01AC01B901CA011F910F91F6
:100EA000FF90EF900895A0E0B0E0E9E5F7E00C9442
:100EB000DA0DDC012B01FA019C91923008F439C162
:100EC000EB018881823008F433C1943069F48430B6
:100ED00009F02FC111969C9111978981981709F4F7
:100EE00028C1A7E0B1E025C1843009F421C18230D6
:100EF000A9F4923009F01DC19A01AD0188E0EA0120
:100F00000990AE01E90109929E018150C1F7E20109
:100F1000898111969C918923818308C1923009F4BB
:100F200007C112962D903C901397EB018A819B810B
:100F30001496AD90BD90CD90DC901797EC80FD801D
:100F40000E811F819101281B390BB90137FF04C0A5
:100F500066277727621B730B603271050CF061C046
:100F6000121613066CF537014801062E04C096943C
:100F70008794779467940A94D2F721E030E040E0B8
:100F800050E004C0220F331F441F551F6A95D2F74B
:100F900021503040404050402E213F2140235123DA
:100FA000211531054105510521F021E030E040E0F7
:100FB00050E079018A01E628F728082919293CC060
:100FC000232BD1F1260E371E35014601062E04C013
:100FD00096948794779467940A94D2F721E030E04E
:100FE00040E050E004C0220F331F441F551F6A9594
:100FF000D2F721503040404050402A213B214C2123
:101000005D21211531054105510521F021E030E038
:1010100040E050E059016A01A628B728C828D9281D
:101020000BC0821593052CF01C01AA24BB2465017A
:1010300003C0EE24FF24870111969C91D2011196E2
:101040008C91981709F445C0992339F0A8019701AC
:101050002A193B094C095D0906C0A60195012E1904
:101060003F09400B510B57FD08C011823382228289
:1010700024833583468357831DC081E08183338277
:10108000228288279927DC01821B930BA40BB50BC6
:1010900084839583A683B7830DC0220F331F441F1B
:1010A000551F24833583468357838281938101971B
:1010B000938382832481358146815781DA01C90176
:1010C0000197A109B1098F5F9F4FAF4FBF4328F32D
:1010D0000BC0918333822282EA0CFB1C0C1D1D1D68
:1010E000E482F5820683178383E08083248135813F
:1010F0004681578157FF1AC0C901AA2797FDA095BD
:10110000BA2F81709070A070B07056954795379542
:101110002795822B932BA42BB52B84839583A683B1
:10112000B78382819381019693838283DF0101C01B
:10113000D201CD01CDB7DEB7E2E10C94F60DA0E20D
:10114000B0E0E5EAF8E00C94E60D69837A838B83DE
:101150009C832D833E834F835887E9E0EE2EF12C4C
:10116000EC0EFD1ECE010196B7010E94090D8E0105
:101170000F5E1F4FCE010596B8010E94090D8A89A6
:1011800091E089278A8BC701B801AE01475E5F4FA6
:101190000E9453070E94340CA096E6E00C94020EC5
:1011A000A0E2B0E0E6EDF8E00C94E60D69837A8306
:1011B0008B839C832D833E834F835887F9E0EF2EEA
:1011C000F12CEC0EFD1ECE010196B7010E94090D17
:1011D0008E010F5E1F4FCE010596B8010E94090DCA
:1011E000C701B801AE01475E5F4F0E9453070E94DE
:1011F000340CA096E6E00C94020EA0E2B0E0E3E02E
:10120000F9E00C94DA0D69837A838B839C832D83B8
:101210003E834F835887CE010196BE01675F7F4FA3
:101220000E94090DCE010596BE016F5E7F4F0E94A0
:10123000090D9985923088F089898230C8F0943000
:1012400019F4823051F404C0843029F4923081F4CE
:1012500087E091E0C6C0923049F420E09A858A89FF
:10126000981321E02A87CE010996BBC0823049F449
:1012700020E09A858A89981321E02A8BCE01419635
:10128000B0C02D843E844F8458886D887E888F88B6
:10129000988CEE24FF248701AA24BB24650140E03A
:1012A00050E060E070E0E0E0F0E0C101817090703B
:1012B000892BE9F0E60CF71C081D191D9A01AB01FA
:1012C0002A0D3B1D4C1D5D1D80E090E0A0E0B0E0CC
:1012D000E614F7040805190520F481E090E0A0E089
:1012E000B0E0BA01A901480F591F6A1F7B1FAA0C61
:1012F000BB1CCC1CDD1C97FE08C081E090E0A0E088
:10130000B0E0A82AB92ACA2ADB2A3196E032F105D0
:1013100049F0660C771C881C991C569447943794A6
:101320002794C3CFFA85EA892B893C898B859C85D4
:10133000280F391F2E5F3F4F17C0CA018170907070
:10134000892B61F016950795F794E79480E090E07B
:10135000A0E0B0E8E82AF92A0A2B1B2B76956795BE
:10136000579547952F5F3F4F77FDE7CF0CC0440F50
:10137000551F661F771F17FD4160EE0CFF1C001FF5
:10138000111F21503040403090E0590790E069072C
:1013900090E4790760F32B8F3C8FDB01CA018F77D4
:1013A0009070A070B07080349105A105B10561F412
:1013B00047FD0AC0E114F1040105110529F0405C64
:1013C0005F4F6F4F7F4F40781A8EFE1711F081E00C
:1013D0008A8F4D8F5E8F6F8F78A383E0898FCE01C8
:1013E00049960E94340CA096E2E10C94F60DA8E117
:1013F000B0E0EDEFF9E00C94E20D69837A838B8322
:101400009C832D833E834F835887B9E0EB2EF12CCC
:10141000EC0EFD1ECE010196B7010E94090D8E0152
:101420000F5E1F4FCE010596B8010E94090D298558
:10143000223008F47EC03989323010F4B8017CC003
:101440008A859A8989278A87243011F0223031F4DD
:10145000231709F06EC067E071E06EC0343039F4D4
:101460001D861E861F86188A1C861B8604C0323085
:1014700021F484E08987B7015FC02B853C858B8987
:101480009C89281B390B3C872B87ED84FE840F85B4
:101490001889AD88BE88CF88D88CEA14FB040C0567
:1014A0001D0540F4EE0CFF1C001F111F21503040A1
:1014B0003C872B8720E030E040E050E080E090E087
:1014C000A0E0B0E460E070E0EA14FB040C051D0548
:1014D00040F0282B392B4A2B5B2BEA18FB080C0910
:1014E0001D09B695A79597958795EE0CFF1C001FD3
:1014F000111F6F5F7F4F6F31710531F7DA01C9013D
:101500008F779070A070B07080349105A105B105FF
:1015100061F427FD0AC0E114F1040105110529F069
:10152000205C3F4F4F4F5F4F20782D873E874F877E
:10153000588BBE01675F7F4FCB010E94340C6896C9
:10154000EAE00C94FE0DA8E1B0E0E9EAFAE00C94C0
:10155000E60D69837A838B839C832D833E834F833F
:10156000588789E0E82EF12CEC0EFD1ECE01019685
:10157000B7010E94090D8E010F5E1F4FCE01059627
:10158000B8010E94090D8985823040F08989823036
:1015900028F0C701B8010E94810D01C08FEF689645
:1015A000E6E00C94020EA8E1B0E0E9EDFAE00C945C
:1015B000E60D69837A838B839C832D833E834F83DF
:1015C000588789E0E82EF12CEC0EFD1ECE01019625
:1015D000B7010E94090D8E010F5E1F4FCE010596C7
:1015E000B8010E94090D8985823040F089898230D6
:1015F00028F0C701B8010E94810D01C08FEF6896E5
:10160000E6E00C94020EA8E1B0E0E9E0FBE00C9407
:10161000E60D69837A838B839C832D833E834F837E
:10162000588789E0E82EF12CEC0EFD1ECE010196C4
:10163000B7010E94090D8E010F5E1F4FCE01059666
:10164000B8010E94090D8985823040F08989823075
:1016500028F0C701B8010E94810D01C081E06896A1
:10166000E6E00C94020EA8E0B0E0E9E3FBE00C94A5
:10167000E30D9B01AC0183E08983DA01C90188276E
:10168000B7FD83959927AA27BB27B82E21153105C9
:101690004105510519F482E089833AC08823A9F0F5
:1016A000203080E0380780E0480780E8580729F4B8
:1016B00060E070E080E09FEC30C0EE24FF24870102
:1016C000E21AF30A040B150B02C079018A018EE1BC
:1016D000C82ED12CDC82CB82ED82FE820F8318874C
:1016E000C801B7010E94E50B01971816190684F48A
:1016F000082E04C0EE0CFF1C001F111F0A94D2F725
:10170000ED82FE820F831887C81AD90ADC82CB8249
:10171000BA82CE0101960E94340C2896E9E00C941E
:10172000FF0DACE0B0E0E7E9FBE00C94EA0D698363
:101730007A838B839C83CE010196BE016B5F7F4FC2
:101740000E94090D8D81823061F1823050F1843028
:1017500021F48E81882351F12EC02F81388537FDE9
:1017600020C06E812F3131051CF06623F9F023C0B3
:101770008EE190E0821B930B29853A854B855C8531
:1017800004C056954795379527958A95D2F76623D5
:10179000B1F050954095309521953F4F4F4F5F4F99
:1017A0000EC020E030E040E050E009C02FEF3FEFF6
:1017B0004FEF5FE704C020E030E040E050E8B901BF
:1017C000CA012C96E2E00C94060EEF92FF920F9362
:1017D0001F937B018C0180E0E81680E0F80681E031
:1017E000080780E0180788F48FEFE816F104010578
:1017F000110531F028F088E090E0A0E0B0E017C0DB
:1018000080E090E0A0E0B0E012C080E0E81680E068
:10181000F80680E0080781E0180728F088E190E0EA
:10182000A0E0B0E004C080E190E0A0E0B0E020E201
:1018300030E040E050E0281B390B4A0B5B0B04C042
:1018400016950795F794E7948A95D2F7F701E15F2B
:10185000FE4F8081281B310941095109C9011F919F
:101860000F91FF90EF900895DF92EF92FF920F9308
:101870001F93FC01E480F58006811781D18080816F
:10188000823048F480E090E0A0E1B0E0E82AF92A54
:101890000A2B1B2BA5C0843009F49FC0823021F491
:1018A000EE24FF24870105C0E114F10401051105B0
:1018B00019F4E0E0F0E096C0628173819FEF623836
:1018C00079070CF05BC022E83FEF261B370B2A316B
:1018D00031052CF020E030E040E050E02AC0B801B3
:1018E000A701022E04C076956795579547950A94EF
:1018F000D2F781E090E0A0E0B0E004C0880F991F2B
:10190000AA1FBB1F2A95D2F70197A109B1098E2101
:101910009F21A023B1230097A105B10521F081E00B
:1019200090E0A0E0B0E09A01AB01282B392B4A2BC4
:101930005B2BDA01C9018F779070A070B070803492
:101940009105A105B10539F427FF09C0205C3F4F7F
:101950004F4F5F4F04C0215C3F4F4F4F5F4FE0E060
:10196000F0E02030A0E03A07A0E04A07A0E45A07E0
:1019700010F0E1E0F0E079018A0127C060387105DC
:1019800064F5FB01E158FF4FD801C7018F779070D4
:10199000A070B07080349105A105B10539F4E7FE5F
:1019A0000DC080E490E0A0E0B0E004C08FE390E0E0
:1019B000A0E0B0E0E80EF91E0A1F1B1F17FF05C0CC
:1019C00016950795F794E794319687E01695079555
:1019D000F794E7948A95D1F705C0EE24FF24870198
:1019E000EFEFF0E06E2F679566276795902F9F7752
:1019F000D794DD24D7948E2F8695492F462B582FC8
:101A00005D29B701CA011F910F91FF90EF90DF9000
:101A10000895FC01DB01408151812281622F6F77A3
:101A200070E0221F2227221F9381892F880F822B8B
:101A3000282F30E0991F9927991F11969C93119791
:101A400021153105A9F5411551056105710511F4FF
:101A500082E037C082E89FEF13969C938E93129793
:101A60009A01AB0167E0220F331F441F551F6A958F
:101A7000D1F783E08C930DC0220F331F441F551FF5
:101A800012968D919C911397019713969C938E9328
:101A90001297203080E0380780E0480780E458073C
:101AA00058F314962D933D934D935C931797089597
:101AB0002F3F310579F4411551056105710519F480
:101AC00084E08C93089564FF03C081E08C9312C07E
:101AD0001C9210C02F57304013963C932E931297B0
:101AE00083E08C9387E0440F551F661F771F8A950C
:101AF000D1F7706414964D935D936D937C93179713
:101B000008951F93DC01FB019C91923008F447C0BB
:101B10008081823008F443C0943051F411961C91B6
:101B2000843099F58181682F70E0611B71093FC095
:101B3000843021F0923031F48230B9F181818823F0
:101B400089F12DC011961C9111978230F1F081819D
:101B50001817D9F412962D913C9113978281938195
:101B60008217930794F028173907BCF014968D91CB
:101B70009D910D90BC91A02D248135814681578186
:101B8000281739074A075B0718F4112341F00AC0E8
:101B900082179307A407B50740F4112319F061E0F9
:101BA00070E005C06FEF7FEF02C060E070E0CB0136
:101BB0001F9108952F923F924F925F926F927F9262
:101BC0008F929F92AF92BF92CF92DF92EF92FF924D
:101BD0000F931F93CF93DF93CDB7DEB7CA1BDB0BF9
:101BE0000FB6F894DEBF0FBECDBF09942A8839889E
:101BF00048885F846E847D848C849B84AA84B984A5
:101C0000C884DF80EE80FD800C811B81AA81B981B0
:101C1000CE0FD11D0FB6F894DEBF0FBECDBFED01C4
:101C20000895EF92FF920F931F93F22FF02E47FD2E
:101C300002C0E4E001C0E4E1242F332727FD309502
:101C400037FF03C0309521953F4F4F2D512F0F2F58
:101C5000EE2E0E94FD118F2D912F1F910F91FF905D
:101C6000EF900895FB019F01E8944230C4F04532A3
:101C7000B4F44A3029F497FB1EF4909581959F4F58
:101C8000642F77270E944715805D8A330CF0895DA9
:101C90008193CB010097A1F716F45DE25193108276
:101CA000C9010C944D14AEE0B0E0E9E5FEE00C94FF
:101CB000E80D0D891E8986E08C831A8309838FEFD6
:101CC0009FE79E838D839E01275E3F4FCE01019645
:101CD0006F89788DA9010E9420102F813885020F0D
:101CE000131FF80110822E96E4E00C94040EF5D038
:101CF00058F080E891E009F49EEFF6D028F040E833
:101D000051E059F45EEF09C0C0C028C1E92FE07866
:101D100003D168F3092E052AC1F3261737074807B0
:101D2000590738F00E2E07F8E02569F0E025E06449
:101D30000AC0EF6307F8009407FADB01B9019D01BF
:101D4000DC01CA01AD01EF9341D0D5D00AD05F913B
:101D5000552331F02BED3FE049E450FD49EC20CA1A
:101D60000895DF93DD27B92FBF7740E85FE31616AC
:101D7000170648075B0710F4D92FF7D09F938F936E
:101D80007F936F935AD1ECEAF0E082D0B4D02F91D8
:101D90003F914F915F91FAD0DD2349F09058A2EA2C
:101DA0002AED3FE049EC5FE3D0785D271DD6DF9157
:101DB000A2C09AD040F091D030F021F45F3F19F0EA
:101DC0005EC05111CCC061C0A7D098F39923C9F36C
:101DD0005523B1F3951B550BBB27AA276217730731
:101DE000840738F09F5F5F4F220F331F441FAA1FE5
:101DF000A9F333D00E2E3AF0E0E830D091505040A5
:101E0000E695001CCAF729D0FE2F27D0660F771F52
:101E1000881FBB1F261737074807AB07B0E809F034
:101E2000BB0B802DBF01FF2793585F4F2AF09E3FC9
:101E3000510568F024C093C05F3FECF3983EDCF39B
:101E4000869577956795B795F7959F5FC9F7880F42
:101E5000911D9695879597F90895E1E0660F771F94
:101E6000881FBB1F621773078407BA0720F0621B25
:101E7000730B840BBA0BEE1F88F7E095089597F962
:101E80009F6780E870E060E008959FEF80EC089520
:101E9000DF93CF931F930F93FF92EF92DF927B011B
:101EA0008C01689405C0DA2EEF0170D0FE01E89431
:101EB000A5912591359145915591AEF3EF0194D5BA
:101EC000FE019701A801DA9479F7DF90EF90FF9077
:101ED0000F911F91CF91DF91089500240A94161657
:101EE000170618060906089500240A941216130608
:101EF000140605060895092E0394000C11F4882396
:101F000052F0BB0F40F4BF2B11F460FF04C06F5FB1
:101F10007F4F8F4F9F4F089557FD9058440F551F87
:101F200059F05F3F71F04795880F97FB991F61F05B
:101F30009F3F79F087950895121613061406551FD2
:101F4000F2CF4695F1DF08C0161617061806991F3E
:101F5000F1CF86957105610508940895E894BB2733
:101F600066277727CB0197F908959B01AC0160E0C4
:101F700070E080E89FE33BCAB0DF28F0B5DF18F0DF
:101F8000952309F07CCF81CF1124E9CFC5DFA0F3E1
:101F9000959FD1F3950F50E0551F629FF001729FFE
:101FA000BB27F00DB11D639FAA27F00DB11DAA1F1D
:101FB000649F6627B00DA11D661F829F2227B00D6A
:101FC000A11D621F739FB00DA11D621F839FA00DF5
:101FD000611D221F749F3327A00D611D231F849F45
:101FE000600D211D822F762F6A2F11249F5750409C
:101FF0008AF0E1F088234AF0EE0FFF1FBB1F661F37
:10200000771F881F91505040A9F79E3F510570F0EF
:1020100036CFA5CF5F3FECF3983EDCF386957795FE
:102020006795B795F795E7959F5FC1F7FE2B880FEA
:10203000911D9695879597F908959B01AC01DDC890
:10204000ABE0B0E0E6E2F0E10C94DA0D3C012B01EC
:102050005A01FC0117821682838181FD03C06FEF54
:102060007FEFC6C19AE0892E1E010894211C311C05
:10207000F3012381F20123FD859123FF81912F013B
:10208000882309F4B2C1853239F423FD859123FFF9
:1020900081912F01853229F490E0B3010E945D14F3
:1020A000E7CF982FFF24EE249924FFE1FF15D0F00D
:1020B0009B3269F09C3228F4903259F0933291F4BB
:1020C0000EC09D3249F0903369F441E024C052E0E3
:1020D000F52A84E0F82A28C098E0F92A25C0E0E132
:1020E000FE2A22C0F7FC29C0892F80538A3070F461
:1020F000F6FE05C0989C902C1124980E15C0E89C03
:10210000E02C1124E80EF0E2FF2A0EC09E3229F4E2
:10211000F6FC6BC140E4F42A07C09C3619F450E881
:10212000F52A02C0983649F4F20123FD959123FF68
:1021300091912F01992309F0B8CF892F85548330CD
:1021400018F08052833038F444E050E0A40EB51EFD
:102150005FE359830FC0933631F0933779F09335AD
:1021600009F056C020C0F5018081898342E050E02B
:10217000A40EB51E610101E010E012C0F501C0809F
:10218000D180F6FC03C06FEF7FEF02C0692D70E0D5
:1021900042E050E0A40EB51EC6010E9442148C011C
:1021A0005FE7F52214C0F501C080D180F6FC03C0C2
:1021B0006FEF7FEF02C0692D70E042E050E0A40EA7
:1021C000B51EC6010E9437148C0150E8F52AF3FEB3
:1021D00007C01AC080E290E0B3010E945D14EA9447
:1021E0008E2D90E008171907A8F30EC0F601F7FC32
:1021F0008591F7FE81916F0190E0B3010E945D141B
:10220000E110EA94015010400115110579F7EAC078
:10221000943611F0993669F5F7FE08C0F501208172
:1022200031814281538184E090E00AC0F5018081D0
:1022300091819C01442737FD4095542F82E090E026
:10224000A80EB91E9FE6F92257FF09C05095409588
:10225000309521953F4F4F4F5F4FE0E8FE2ACA016E
:10226000B901A1012AE030E00E948914D82ED218C9
:1022700040C0953729F41F2D1F7E2AE030E01DC095
:102280001F2D197F9F3661F0903720F4983509F0A3
:10229000ACC00FC0903739F0983709F0A6C004C021
:1022A00028E030E00AC0106114FD146020E130E045
:1022B00004C014FD166020E132E017FF08C0F501EC
:1022C000608171818281938144E050E008C0F50112
:1022D00080819181BC0180E090E042E050E0A40E5A
:1022E000B51EA1010E948914D82ED2188FE7F82EAE
:1022F000F122F6FE0BC05EEFF522D91438F4F4FE9D
:1023000007C0F2FC05C08FEEF82202C01D2D01C0EF
:10231000192DF4FE0DC0FE01ED0DF11D80818033FD
:1023200019F499EEF92208C01F5FF2FE05C003C040
:102330008F2D867809F01F5F0F2DF3FC14C0F0FE7F
:102340000FC01E1510F09D2C0BC09D2C9E0C911AD9
:102350001E2D06C080E290E0B3010E945D141F5F55
:102360001E15C0F304C01E1510F4E11A01C0EE24BE
:1023700004FF0FC080E390E0B3010E945D1402FFF0
:102380001DC001FD03C088E790E00EC088E590E025
:102390000BC0802F867891F001FF02C08BE201C054
:1023A00080E2F7FC8DE290E0B3010E945D1406C06C
:1023B00080E390E0B3010E945D149A94D914C0F3B5
:1023C000DA94F101ED0DF11D808190E0B3010E94DE
:1023D0005D14DD20A9F706C080E290E0B3010E9401
:1023E0005D14EA94EE20C1F743CEF3016681778154
:1023F000CB012B96E2E10C94F60DA9E0B0E0E3E00E
:10240000F2E10C94DE0D6A01122FA02EBE2C2BE3FC
:10241000201718F42CE3922E02C0902E9394AE0154
:102420004F5F5F4F27E0092D0E945F13BC01898138
:10243000E82EFF24C70189709070019711F4ADE276
:1024400009C0B1FE02C0ABE205C0B0FC02C0A0E012
:1024500001C0A0E2E3FE3BC0AA2311F423E001C0C7
:1024600024E0211710F020E002C0121B212FEB2CDA
:10247000B4FE02C0322F0AC0F601322F80E202C041
:10248000819331503323E1F7C20ED11CAA2319F0F6
:10249000F601A1936F01F6013196E2FE05C09EE4BC
:1024A000D6019C9381E404C09EE6D6019C9381E60C
:1024B00011968C9391833296DF01832F90E202C0B4
:1024C0009D9381508823E1F7E30FF11D40C0E2FEA8
:1024D00042C0AA2311F423E001C024E0211710F028
:1024E00020E002C0121B212FEB2CB4FE02C0922F61
:1024F0000AC0F601922F80E202C081939150992385
:10250000E1F7C20ED11CAA2319F0F601A1936F01C5
:10251000F6013196E2FE08C089E4D6018C938EE480
:1025200011968C9386E407C089E6D6018C938EE6DB
:1025300011968C9386E681833296DF01892F20E203
:1025400002C02D9381508823E1F7E90FF11D10821D
:102550002EEF3FEFAFC0161617061CF041E050E01B
:1025600003C0AB014F5F5F4FAA2019F480E090E0F9
:1025700003C08A2D90E0019620E030E0AA2311F0FC
:1025800021E030E0240F351F280F391F812F90E004
:102590002817390714F020E002C0121B212F4B2D01
:1025A00050E0CA0180719070B4FC0DC0B3FC0BC048
:1025B000F601322F40E202C0419331503323E1F75C
:1025C000C20ED11C01C0322FAA2319F0F601A1932B
:1025D0006F01892B11F0132F0AC0F601132F80E32E
:1025E00002C0819311501123E1F7C30ED11C092DB4
:1025F000060FBA8090E1892E912C8E209F20E4FE58
:1026000004C0F1E3BF1609F40150101614F001E004
:1026100003C0093008F008E09B0177FF02C020E00A
:1026200030E0CB010196821B930BFE013196E80F3F
:10263000F91F8EE2F82E3B01601A71088A2D90E096
:1026400044275527481B590B8FEF2F3F380719F4A4
:10265000D601FD926D01621773072CF062167306A6
:1026600014F4808101C080E321503040319624175A
:10267000350724F0D6018D936D01E6CF2617370775
:1026800049F4B5E3BB1528F0BB1621F4811491047D
:1026900009F481E3F6018193D601812F90E202C013
:1026A0009C93815011968823D9F7E10FF11D108278
:1026B00020E030E0C9012996EEE00C94FA0D2830B4
:1026C00008F027E03327DA01990F311D87FD91606B
:1026D00000966105710539F432602E5F3D9330E359
:1026E0002A95E1F708959F3F30F080387105610524
:1026F00009F03C5F3C5F3D93913008F08068911D8C
:10270000DF93CF931F930F93FF92EF92192F987F30
:102710009695E92F96959695E90FFF27ED5CFE4F6C
:1027200099273327EE24FF24A701E7010590089499
:10273000079428F4360FE71EF81E491F511D660F37
:10274000771F881F991F0694A1F70590079428F416
:10275000E70EF81E491F561FC11D770F881F991FCE
:10276000661F0694A1F70590079428F4F80E491FF8
:10277000561FC71FD11D880F991F661F771F06940C
:10278000A1F70590079420F4490F561FC71FD81FC3
:10279000990F661F771F881F0694A9F784911095DB
:1027A000177041F0D695C79557954795F794E794DC
:1027B0001A95C1F7E9EDF0E06894159015913591FF
:1027C0006591959105907FE27395E118F10A430BAD
:1027D000560BC90BD009C0F7E10CF11E431F561F61
:1027E000C91FD01D7EF4703311F48A95E6CFE894AA
:1027F000015030F0080F0AF40027021708F4202FC8
:102800002395022F7A3328F079E37D932A95E9F70F
:1028100010C07D932A9589F606949795679537950C
:1028200017951794E118F10A430B560BC90BD00901
:1028300098F023957E9173957A3308F070E37C933A
:102840002013B8F77E9170617D9330F0839571E32A
:102850007D9370E32A95E1F71124EF90FF900F919B
:102860001F91CF91DF91992787FD90950895FC01E5
:102870000590615070400110D8F7809590958E0FAB
:102880009F1F0895FC016150704001900110D8F71E
:10289000809590958E0F9F1F0895DC01FC01672F96
:1028A00071917723E1F7329704C07C916D93708327
:1028B0006291AE17BF07C8F308950F931F93CF938C
:1028C000DF938C01EB018B8181FF1BC082FF0DC068
:1028D0002E813F818C819D812817390764F4E8811E
:1028E000F9810193F983E88306C0E885F985802F93
:1028F0000995892B31F48E819F8101969F838E8368
:1029000002C00FEF1FEFC801DF91CF911F910F9110
:102910000895FA01AA27283051F1203181F1E89475
:102920006F936E7F6E5F7F4F8F4F9F4FAF4FB1E0C2
:102930003ED0B4E03CD0670F781F891F9A1FA11DBD
:10294000680F791F8A1F911DA11D6A0F711D811DBE
:10295000911DA11D20D009F468943F912AE0269F83
:1029600011243019305D3193DEF6CF010895462FE2
:102970004770405D4193B3E00FD0C9F7F6CF462FC3
:102980004F70405D4A3318F0495D31FD405241932C
:1029900002D0A9F7EACFB4E0A695979587957795E9
:1029A0006795BA95C9F700976105710508959B0170
:1029B000AC010A2E06945795479537952795BA95F9
:1029C000C9F7620F731F841F951FA01D089585DA34
:1029D00030F08ADA20F031F49F3F11F41EF455CA2A
:1029E0000EF4E095E7FB4BCAE92F96DA80F3BA17AD
:1029F000620773078407950718F071F49EF5AECA55
:102A00000EF4E0950B2EBA2FA02D0B01B901900109
:102A10000C01CA01A0011124FF27591B99F0593F4D
:102A200050F4503E68F11A16F040A22F232F342F95
:102A30004427585FF3CF469537952795A795F040E3
:102A40005395C9F77EF41F16BA0B620B730B840BF8
:102A5000BAF09150A1F0FF0FBB1F661F771F881FB0
:102A6000C2F70EC0BA0F621F731F841F48F4879508
:102A700077956795B795F7959E3F08F0B3CF9395F7
:102A8000880F08F09927EE0F979587950895AA1B50
:102A9000BB1B51E107C0AA1FBB1FA617B70710F049
:102AA000A61BB70B881F991F5A95A9F7809590957B
:0A2AB000BC01CD010895F894FFCF9A
:102ABA000A0D00256C640000000000000000000000
:102ACA0001020203030303040404040404040405C6
:102ADA00050505050505050505050505050505069B
:102AEA00060606060606060606060606060606067C
:102AFA00060606060606060606060606060606076B
:102B0A00070707070707070707070707070707074B
:102B1A00070707070707070707070707070707073B
:102B2A00070707070707070707070707070707072B
:102B3A00070707070707070707070707070707081A
:102B4A0008080808080808080808080808080808FB
:102B5A0008080808080808080808080808080808EB
:102B6A0008080808080808080808080808080808DB
:102B7A0008080808080808080808080808080808CB
:102B8A0008080808080808080808080808080808BB
:102B9A0008080808080808080808080808080808AB
:102BAA00080808080808080808080808080808089B
:102BBA000808080808080808080808080808080093
:00000001FF
