:1000000014C02EC02DC02CC02BC02AC029C028C0AF
:1000100027C026C025C024C023C022C021C020C0C4
:100020001FC01EC01DC01CC01BC011241FBECFE5B9
:10003000D1E0DEBFCDBF10E0A0E6B0E0E4ECF2E03E
:1000400002C005900D92A836B107D9F710E0A8E6D6
:10005000B0E001C01D92A03CB107E1F703D030C170
:10006000CFCF089583E08ABB8CE781BB8EE187BB4D
:1000700018BA28EC30E04CE712BA88EE93E0F901A8
:100080003197F1F70197D9F742BB88EE93E0F90178
:100090003197F1F70197D9F7EFCF83E089B988E17C
:1000A0008AB908951F93182F873041F46091BE00DC
:1000B0007091BF0080E690E0C0D007C08A3011F494
:1000C0008DE0F0DF5D9BFECF1CB980E090E01F91DA
:1000D0000895EF92FF920F931F93CF93DF937C01CC
:1000E0008091680090916900892B09F08AC00AE626
:1000F00010E05F9BFECF5C9B03C02EEF3FEF95C0EF
:100100005B9991C09CB19D3011F09A3061F48AE006
:10011000F8018083B701C6DF8AE690E0909369001A
:10012000809368006EC0993009F490E2892F805264
:100130008F3510F0903A68F0F0E0093B1F0711F49A
:1001400087E004C0F80191938F01892FB701AADFDE
:10015000D0CF923119F1933130F4933009F463C068
:10016000983039F609C0973109F440C09F3721F023
:10017000953109F0BECF2AC0F0E00A361F0709F01A
:1001800008F4B7CF88E0B7018DDF80E2B7018ADFDE
:1001900088E0B70187DF01501040ABCF8DE0B70199
:1001A00081DFCAE6D0E003C08991B7017BDFC017C9
:1001B000D107D0F39ECF88E0B70174DF80E2B701AA
:1001C00071DF88E0B7016EDF0150104080E00A3631
:1001D000180709F080F78DCF88E0B70163DF80E270
:1001E000B70160DF88E0B7015DDF8E01E0E00A362D
:1001F0001E0709F008F47DCFE8018A91803261F78B
:1002000078CFE0916800F09169008191F0936900E6
:10021000E09368008A3021F410926900109268001F
:10022000282F30E002C02FEF3FEFC901DF91CF91BF
:100230001F910F91FF90EF900895EF92FF920F930F
:100240001F93CF93DF937C018B01DB0113968C917D
:1002500081FD03C0CFEFDFEF13C0C0E0D0E00BC0E3
:10026000D8011896ED91FC911997B8010995892B41
:1002700011F0CFEFDFEFF70181917F01882381F744
:10028000CE01CDB7DEB7E6E00CC02A8839884888B1
:100290005F846E847D848C849B84AA84B984C884A2
:1002A000DF80EE80FD800C811B81AA81B981CE0F99
:1002B000D11D0FB6F894DEBF0FBECDBFED0108957E
:0402C000F894FFCFE0
:0802C4002A72696E672A0A0024
:00000001FF
