:100000000C9456000C9473000C9473000C947300C1
:100010000C9473000C9473000C9473000C94730094
:100020000C9473000C9473000C9473000C94730084
:100030000C9473000C9473000C9473000C94730074
:100040000C9473000C9473000C9473000C94730064
:100050000C942B020C9473000C9473000C94050206
:100060000C9473000C9473000C9473000C94730044
:100070000C9473000C9435020C9473000C94730070
:100080000C9473000C9473000C9473000C94730024
:100090000C9473000C9473000C9473000C94730014
:1000A0000C9473000C9473000C94730011241FBE05
:1000B000CFEFDAE0DEBFCDBF19E0A0E0B1E0E0E5D0
:1000C000FDE002C005900D92AC35B107D9F719E0FB
:1000D000ACE5B9E001C01D92A336B107E1F70E947B
:1000E0007C020C94A6060C9400001092CD0083E0D4
:1000F0008093CC0086E08093CA0088E18093C90099
:100100000895982F8091C80085FFFCCF9093CE0072
:100110000895AC0120E030E0FA01E20FF31FE08126
:10012000EE2359F02F5F3F4F8091C80085FFFCCF31
:10013000E093CE002034310579F7089580E091E016
:100140000E94890008950F931F93DF93CF93CDB73B
:10015000DEB72A970FB6F894DEBF0FBECDBF2DB71E
:100160003EB7285030400FB6F8943EBF0FBE2DBFAB
:10017000EDB7FEB731968E010F5F1F4FADB7BEB71B
:1001800012961C930E93119723E031E03383228360
:1001900064837583868397830E94CE032DB73EB711
:1001A000285F3F4F0FB6F8943EBF0FBE2DBFC8016A
:1001B0000E9489002A960FB6F894DEBF0FBECDBF0D
:1001C000CF91DF911F910F910895FC01EE0FFF1F5A
:1001D000EB5EFE4F808191810895EF92FF920F9325
:1001E0001F93A0E0B0E0BC01CD0128EE31E040E07B
:1001F00050E00E94720328EE33E040E050E00E949D
:10020000910379018A018EEC9FEFAFEFBFEFE80E0B
:10021000F91E0A1F1B1FC7011F910F91FF90EF903E
:1002200008959C01663419F420E030E004C0633482
:1002300011F4205E3F4FC90108950F931F9386323A
:1002400091051CF486E290E006C023E0893D920708
:1002500014F088ED93E08C01065210400E949E003D
:1002600087E091E00E948900B801882777FD80959A
:10027000982F0E94A3000E949E00000F111F0B5E8A
:100280001E4FF801808191811F910F91089508956B
:1002900087FD469A86FD479A85FD8F9A84FD8E9A42
:1002A00083FD8D9A82FD8C9A81FD899A80FD889AC2
:1002B0000895469847988F988E988D988C9889982D
:1002C000889808951F93182F0E945901103319F42C
:1002D00080912B0942C0113319F480912C093DC043
:1002E000123319F480912D0938C0133319F4809119
:1002F0002E0933C0143319F480912F092EC0153301
:1003000019F48091300929C0163319F4809131090C
:1003100024C0173319F4809132091FC0183319F41F
:10032000809133091AC0193319F48091340915C02A
:10033000153419F48091360910C0163419F48091DF
:1003400037090BC01F3519F480913B0906C01123F2
:1003500011F08EE702C080913C090E9448011F9174
:100360000895EF92FF920F931F937C012C98FC014C
:1003700080810E94620100ED17E0C8010197F1F74A
:100380002C9A2D98F70181810E946201C801019782
:10039000F1F72D9A2E98F70182810E946201C8011F
:1003A0000197F1F72E9A2F98F70183810E9462013D
:1003B000C8010197F1F72F9A1F910F91FF90EF90CD
:1003C0000895469A80E29EE4FC013197F1F7479A3E
:1003D000FC013197F1F78F9AFC013197F1F78E9A72
:1003E000FC013197F1F78D9AFC013197F1F78C9A66
:1003F000FC013197F1F7899AFC013197F1F7889A5E
:100400000197F1F70E94590108951F920F920FB6BC
:100410000F9211248F939F9380915F0990916009AF
:10042000079749F481E08093610910926209109264
:10043000600910925F0980915F09909160090196AF
:100440009093600980935F099F918F910F900FBEE9
:100450000F901F9018951F920F920FB60F921124B4
:100460000F900FBE0F901F9018951F920F920FB60E
:100470000F9211248F939F9380917800909179002F
:1004800090935D0980935C099F918F910F900FBEAF
:100490000F901F9018958A30910568F08436910569
:1004A00018F422E030E009C0885E934018F423E09D
:1004B00030E003C0089521E030E0C901089500D084
:1004C00000D000D0EDB7FEB73196ADB7BEB71296EB
:1004D0009C938E9311978DE499E093838283758327
:1004E00064830E94CE038DB79EB706960FB6F8942C
:1004F0009EBF0FBE8DBF08959F92AF92BF92CF92C5
:10050000DF92EF92FF920F931F93CF93DF9387B108
:10051000806C87B980B3836F80BB84B1806F84B9EE
:1005200085B1806F85B90E94750081E080936E006F
:1005300080936F0016BC109285001092840085E0B5
:1005400085BD8091810082608093810080917A00D6
:10055000876080937A0080917C00806480937C0027
:1005600080917B00806280937B0080917C00826020
:1005700080937C0080917A00806280937A008091E1
:100580007B00866080937B0080917A0080688093F6
:100590007A0080917A00886080937A00789420E5D0
:1005A000A22E29E0B22E9DE4C92E99E0D92E06E4B0
:1005B0009924939484E6E82EF12C1FE5809161093B
:1005C000882309F485C080915C0990915D0990931E
:1005D0005509809354090E94ED009093550980932A
:1005E000540988E190E063E470E00E941101909367
:1005F00055098093540900D000D000D0EDB7FEB764
:100600003196ADB7BEB71296BC92AE921197D38217
:10061000C282958384830E94CE0320915409309135
:1006200055098DB79EB706960FB6F8949EBF0FBEBC
:100630008DBF2A30310518F4C1E0D0E00CC024365B
:10064000310518F4C2E0D0E006C093E0283E390737
:1006500010F4C3E0D0E0C0935E0900935609C130A6
:1006600039F410935709109358098091500917C015
:10067000C23049F41093570980915009809358096A
:10068000809151090CC0C33061F48091500980936E
:10069000570980915109809358098091520980939C
:1006A000590900935A09C9010196909355098093FD
:1006B0005409885E934024F0F0925509E092540961
:1006C00087E599E00E94B101109261099092620958
:1006D00080916209882309F471CF87E599E00E942F
:1006E000B1016CCF629FD001739FF001829FE00D3A
:1006F000F11D649FE00DF11D929FF00D839FF00DA1
:10070000749FF00D659FF00D9927729FB00DE11D4C
:10071000F91F639FB00DE11DF91FBD01CF01112429
:10072000089597FB092E05260ED057FD04D014D04E
:100730000AD0001C38F450954095309521953F4FD4
:100740004F4F5F4F0895F6F790958095709561959E
:100750007F4F8F4F9F4F0895A1E21A2EAA1BBB1BFC
:10076000FD010DC0AA1FBB1FEE1FFF1FA217B3077D
:10077000E407F50720F0A21BB30BE40BF50B661F93
:10078000771F881F991F1A9469F760957095809557
:1007900090959B01AC01BD01CF010895AEE0B0E0A2
:1007A000E4EDF3E00C947D060D891E8986E08C83D0
:1007B0001A8309838FEF9FE79E838D839E01275EB7
:1007C0003F4FCE0101966F89788DA9010E94F203F7
:1007D0002F813885020F131FF80110822E96E4E056
:1007E0000C949906ABE0B0E0E8EFF3E00C946F06F0
:1007F0003C012B015A01FC0117821682838181FD85
:1008000003C06FEF7FEFC6C19AE0892E1E010894E6
:10081000211C311CF3012381F20123FD859123FF6B
:1008200081912F01882309F4B2C1853239F423FD67
:10083000859123FF81912F01853229F490E0B30146
:100840000E94E505E7CF982FFF24EE249924FFE1CD
:10085000FF15D0F09B3269F09C3228F4903259F0A9
:10086000933291F40EC09D3249F0903369F441E027
:1008700024C052E0F52A84E0F82A28C098E0F92A3A
:1008800025C0E0E1FE2A22C0F7FC29C0892F805351
:100890008A3070F4F6FE05C0989C902C1124980EB6
:1008A00015C0E89CE02C1124E80EF0E2FF2A0EC0EF
:1008B0009E3229F4F6FC6BC140E4F42A07C09C3652
:1008C00019F450E8F52A02C0983649F4F20123FDE4
:1008D000959123FF91912F01992309F0B8CF892F8A
:1008E0008554833018F08052833038F444E050E06F
:1008F000A40EB51E5FE359830FC0933631F09337D2
:1009000079F0933509F056C020C0F50180818983C4
:1009100042E050E0A40EB51E610101E010E012C0FB
:10092000F501C080D180F6FC03C06FEF7FEF02C0FD
:10093000692D70E042E050E0A40EB51EC6010E9491
:10094000DA058C015FE7F52214C0F501C080D18083
:10095000F6FC03C06FEF7FEF02C0692D70E042E04C
:1009600050E0A40EB51EC6010E94CF058C0150E8D0
:10097000F52AF3FE07C01AC080E290E0B3010E949E
:10098000E505EA948E2D90E008171907A8F30EC02C
:10099000F601F7FC8591F7FE81916F0190E0B301BC
:1009A0000E94E505E110EA9401501040011511057F
:1009B00079F7EAC0943611F0993669F5F7FE08C068
:1009C000F501208131814281538184E090E00AC0A9
:1009D000F501808191819C01442737FD4095542F7A
:1009E00082E090E0A80EB91E9FE6F92257FF09C0E9
:1009F00050954095309521953F4F4F4F5F4FE0E820
:100A0000FE2ACA01B901A1012AE030E00E941106C4
:100A1000D82ED21840C0953729F41F2D1F7E2AE00A
:100A200030E01DC01F2D197F9F3661F0903720F4F4
:100A3000983509F0ACC00FC0903739F0983709F0FD
:100A4000A6C004C028E030E00AC0106114FD1460A4
:100A500020E130E004C014FD166020E132E017FF11
:100A600008C0F501608171818281938144E050E08A
:100A700008C0F50180819181BC0180E090E042E0F6
:100A800050E0A40EB51EA1010E941106D82ED21866
:100A90008FE7F82EF122F6FE0BC05EEFF522D91497
:100AA00038F4F4FE07C0F2FC05C08FEEF82202C055
:100AB0001D2D01C0192DF4FE0DC0FE01ED0DF11D1F
:100AC0008081803319F499EEF92208C01F5FF2FE8D
:100AD00005C003C08F2D867809F01F5F0F2DF3FC32
:100AE00014C0F0FE0FC01E1510F09D2C0BC09D2CE5
:100AF0009E0C911A1E2D06C080E290E0B3010E9468
:100B0000E5051F5F1E15C0F304C01E1510F4E11AA1
:100B100001C0EE2404FF0FC080E390E0B3010E9407
:100B2000E50502FF1DC001FD03C088E790E00EC08F
:100B300088E590E00BC0802F867891F001FF02C01D
:100B40008BE201C080E2F7FC8DE290E0B3010E94ED
:100B5000E50506C080E390E0B3010E94E5059A94A4
:100B6000D914C0F3DA94F101ED0DF11D808190E00C
:100B7000B3010E94E505DD20A9F706C080E290E000
:100B8000B3010E94E505EA94EE20C1F743CEF301DC
:100B900066817781CB012B96E2E10C948B06FC01F8
:100BA0000590615070400110D8F7809590958E0F98
:100BB0009F1F0895FC016150704001900110D8F70B
:100BC000809590958E0F9F1F08950F931F93CF933D
:100BD000DF938C01EB018B8181FF1BC082FF0DC075
:100BE0002E813F818C819D812817390764F4E8812B
:100BF000F9810193F983E88306C0E885F985802FA0
:100C00000995892B31F48E819F8101969F838E8374
:100C100002C00FEF1FEFC801DF91CF911F910F911D
:100C20000895FA01AA27283051F1203181F1E89482
:100C30006F936E7F6E5F7F4F8F4F9F4FAF4FB1E0CF
:100C40003ED0B4E03CD0670F781F891F9A1FA11DCA
:100C5000680F791F8A1F911DA11D6A0F711D811DCB
:100C6000911DA11D20D009F468943F912AE0269F90
:100C700011243019305D3193DEF6CF010895462FEF
:100C80004770405D4193B3E00FD0C9F7F6CF462FD0
:100C90004F70405D4A3318F0495D31FD4052419339
:100CA00002D0A9F7EACFB4E0A695979587957795F6
:100CB0006795BA95C9F700976105710508959B017D
:100CC000AC010A2E06945795479537952795BA9506
:100CD000C9F7620F731F841F951FA01D08952F92DF
:100CE0003F924F925F926F927F928F929F92AF92BC
:100CF000BF92CF92DF92EF92FF920F931F93CF9309
:100D0000DF93CDB7DEB7CA1BDB0B0FB6F894DEBF9F
:100D10000FBECDBF09942A88398848885F846E84C5
:100D20007D848C849B84AA84B984C884DF80EE800F
:100D3000FD800C811B81AA81B981CE0FD11D0FB618
:100D4000F894DEBF0FBECDBFED010895F894FFCF3C
:100D50000A0D00256C640074656D70436F756E74C8
:100D600073203D2000D8FFD9FFDAFFDAFFDBFFDC7C
:100D7000FFDDFFDDFFDEFFDFFFDFFFE0FFE1FFE183
:100D8000FFE2FFE3FFE3FFE4FFE4FFE5FFE5FFE64B
:100D9000FFE7FFE7FFE8FFE8FFE8FFE8FFE8FFE91C
:100DA000FFE9FFE9FFE9FFE9FFEAFFEAFFEAFFEAFF
:100DB000FFEAFFEBFFEBFFEBFFEBFFEBFFECFFECE2
:100DC000FFECFFECFFECFFEDFFEDFFEDFFEDFFEDC6
:100DD000FFEEFFEEFFEEFFEEFFEEFFEFFFEFFFEFA8
:100DE000FFEFFFEFFFF0FFF0FFF0FFF0FFF0FFF18C
:100DF000FFF1FFF1FFF1FFF1FFF2FFF2FFF2FFF26F
:100E0000FFF2FFF3FFF3FFF3FFF3FFF3FFF4FFF451
:100E1000FFF4FFF4FFF4FFF5FFF5FFF5FFF5FFF535
:100E2000FFF6FFF6FFF6FFF6FFF6FFF7FFF7FFF717
:100E3000FFF7FFF7FFF8FFF8FFF8FFF8FFF8FFF9FB
:100E4000FFF9FFF9FFF9FFF9FFFAFFFAFFFAFFFADE
:100E5000FFFAFFFBFFFBFFFBFFFBFFFBFFFCFFFCC1
:100E6000FFFCFFFCFFFCFFFDFFFDFFFDFFFDFFFDA5
:100E7000FFFEFFFEFFFEFFFEFFFEFFFFFFFFFFFF87
:100E8000FFFFFFFFFF000000000000000000000166
:100E90000001000100010001000200020002000246
:100EA0000002000300030003000300030004000429
:100EB000000400040004000500050005000500050D
:100EC00000060006000600060006000700070007EF
:100ED00000070007000800080008000800080009D3
:100EE0000009000900090009000A000A000A000AB6
:100EF000000A000B000B000B000B000B000C000C99
:100F0000000C000C000C000D000D000D000D000D7C
:100F1000000E000E000E000E000E000F000F000F5E
:100F2000000F000F00100010001000100010001142
:100F30000011001100110011001200120012001225
:100F40000012001300130013001300130014001408
:100F500000140014001400150015001500150015EC
:100F600000160016001600160016001700170017CE
:100F700000170017001800180018001800180019B2
:100F80000019001900190019001A001A001A001A95
:100F9000001A001B001B001B001B001B001C001C78
:100FA000001C001C001C001D001D001D001D001D5C
:100FB000001E001E001E001E001E001F001F001F3E
:100FC000001F001F00200020002000200020002122
:100FD0000021002100210021002100220022002206
:100FE00000220022002300230023002300230024EA
:100FF00000240024002400240025002500250025CD
:1010000000250026002600260026002600260027B0
:101010000027002700270027002800280028002894
:101020000028002800290029002900290029002A79
:10103000002A002A002A002A002B002B002B002B5C
:10104000002B002B002C002C002C002C002C002C42
:10105000002D002D002D002D002D002E002E002E25
:10106000002E002E002F002F002F002F002F003009
:1010700000300030003000300030003100310031ED
:1010800000310031003100320032003200320032D3
:1010900000320033003300330033003300340034B7
:1010A000003400340034003400350035003500359C
:1010B0000035003500360036003600360036003682
:1010C0000037003700370037003700370038003866
:1010D000003800380038003900390039003900394B
:1010E0000039003A003A003A003A003A003A003B30
:1010F000003B003B003B003B003B003C003C003C15
:10110000003C003C003C003D003D003D003D003DFA
:10111000003D003E003E003E003E003E003E003FDF
:10112000003F003F003F003F003F004000400040C4
:1011300000400040004000410041004100410041AA
:10114000004100420042004200420042004200438F
:101150000043004300430043004300440044004474
:10116000004400440044004500450045004500455A
:10117000004500460046004600460046004700473E
:101180000047004700470047004800480048004823
:101190000048004800490049004900490049004909
:1011A000004A004A004A004A004A004A004B004BED
:1011B000004B004B004B004B004C004C004C004CD3
:1011C000004C004C004D004D004D004D004D004DB9
:1011D000004E004E004E004E004E004F004F004F9C
:1011E000004F004F004F0050005000500050005082
:1011F0000050005100510051005100510051005267
:10120000005200520052005200530053005300534A
:101210000053005300540054005400540054005430
:101220000055005500550055005500550056005614
:1012300000560056005600570057005700570057F9
:1012400000570058005800580058005800590059DD
:101250000059005900590059005A005A005A005AC2
:10126000005A005B005B005B005B005B005B005CA6
:10127000005C005C005C005C005D005D005D005D8A
:10128000005D005D005E005E005E005E005E005F6F
:10129000005F005F005F005F006000600060006052
:1012A0000060006100610061006100610061006236
:1012B000006200620062006200630063006300631A
:1012C00000630064006400640064006400650065FD
:1012D00000650065006500660066006600660066E1
:1012E00000670067006700670067006800680068C3
:1012F0000068006800690069006900690069006AA7
:10130000006A006A006A006A006B006B006B006B89
:10131000006B006C006C006C006C006D006D006D6B
:10132000006D006D006E006E006E006E006E006F4E
:10133000006F006F006F0070007000700070007030
:101340000071007100710071007200720072007211
:1013500000720073007300730073007400740074F3
:1013600000740074007500750075007500760076D5
:1013700000760076007700770077007700780078B5
:101380000078007800780079007900790079007A97
:10139000007A007A007A007B007B007B007B007C77
:1013A000007C007C007C007D007D007D007D007E57
:1013B000007E007E007E007F007F007F0080008036
:1013C0000080008000810081008100810082008215
:1013D00000820082008300830083008400840084F4
:1013E00000840085008500850086008600860086D2
:1013F00000870087008700880088008800880089AF
:1014000000890089008A008A008A008A008B008B8C
:10141000008B008C008C008C008D008D008D008E68
:10142000008E008E008F008F008F00900090009043
:101430000090009100910091009200920092009320
:1014400000930094009400940095009500950096F8
:1014500000960096009700970097009800980098D3
:1014600000990099009A009A009A009B009B009CAA
:10147000009C009C009D009D009D009E009E009F82
:10148000009F009F00A000A000A100A100A200A258
:1014900000A200A300A300A400A400A500A500A52D
:1014A00000A600A600A700A700A800A800A900A900
:1014B00000AA00AA00AB00AB00AC00AC00AD00ADD0
:1014C00000AE00AE00AF00AF00B000B000B100B1A0
:1014D00000B200B200B300B300B400B500B500B66E
:1014E00000B600B700B700B800B900B900BA00BA3A
:1014F00000BB00BC00BC00BD00BE00BE00BF00C001
:1015000000C000C100C200C200C300C400C500C5C5
:1015100000C600C700C800C800C900CA00CB00CB85
:1015200000CC00CD00CE00CF00D000D100D100D241
:1015300000D300D400D500D600D700D800D900DAF7
:1015400000DB00DC00DD00DE00DF00E000E200E3A5
:1015500000E400E500E600E800E900EA00EC00ED48
:1015600000EE00F000F100F300F400F600F700F9DF
:1015700000FB00FC00FE0000010101FC60DAF266E5
:10158000B6BEE0FEF69C9E8E2AB67E10007E306DC2
:1015900079335B5F707F7B4E4F47155B3F2564005F
:0C15A0003939390001004639393946005C
:00000001FF
