:100000000C9456000C9473000C9473000C947300C1
:100010000C9473000C9473000C9473000C94730094
:100020000C9473000C9473000C9473000C94730084
:100030000C9473000C9473000C9473000C94730074
:100040000C9473000C9473000C9473000C94730064
:100050000C9450020C9473000C9473000C942A02BC
:100060000C9473000C9473000C9473000C94730044
:100070000C9473000C945A020C9473000C9473004B
:100080000C9473000C9473000C9473000C94730024
:100090000C9473000C9473000C9473000C94730014
:1000A0000C9473000C9473000C94730011241FBE05
:1000B000CFEFDAE0DEBFCDBF1AE0A0E0B1E0ECEFB9
:1000C000F7E102C005900D92A037B107D9F71AE009
:1000D000A0E7BAE001C01D92A737B107E1F70E947F
:1000E000A7020C94FC0B0C9400001092CD0083E04E
:1000F0008093CC0086E08093CA0088E18093C90099
:100100000895982F8091C80085FFFCCF9093CE0072
:100110000895AC0120E030E0FA01E20FF31FE08126
:10012000EE2359F02F5F3F4F8091C80085FFFCCF31
:10013000E093CE002034310579F7089580E091E016
:100140000E94890008950F931F93DF93CF93CDB73B
:10015000DEB72A970FB6F894DEBF0FBECDBF2DB71E
:100160003EB7285030400FB6F8943EBF0FBE2DBFAB
:10017000EDB7FEB731968E010F5F1F4FADB7BEB71B
:1001800012961C930E93119723E031E03383228360
:1001900064837583868397830E945B092DB73EB77E
:1001A000285F3F4F0FB6F8943EBF0FBE2DBFC8016A
:1001B0000E9489002A960FB6F894DEBF0FBECDBF0D
:1001C000CF91DF911F910F910895FC01EE0FFF1F5A
:1001D000EB5EFE4F808191810895EF92FF920F9325
:1001E0001F93A0E0B0E0BC01CD0128EE31E040E07B
:1001F00050E00E94C80828EE33E040E050E00E9442
:10020000E70879018A018EEC9FEFAFEFBFEFE80EB0
:10021000F91E0A1F1B1FC7011F910F91FF90EF903E
:1002200008951F93162FAA2797FDA095BA2FBC01FA
:10023000CD010E947A06163469F420E030E040E0F7
:1002400052E40E94220524E036E54EE05FE30E947E
:1002500080050EC0133461F426E636E646EE5FE311
:100260000E94800520E030E040E052E40E94530507
:100270000E94D806CB011F9108950F931F938632D9
:1002800091051CF486E290E006C023E0893D9207C8
:1002900014F088ED93E08C01065210400E949E00FD
:1002A00087E091E00E948900B801882777FD80955A
:1002B000982F0E94A3000E949E00000F111F0B5E4A
:1002C0001E4FF801808191811F910F91089508952B
:1002D00087FD469A86FD479A85FD8F9A84FD8E9A02
:1002E00083FD8D9A82FD8C9A81FD899A80FD889A82
:1002F0000895469847988F988E988D988C988998ED
:10030000889808951F93182F0E947901103319F4CB
:1003100080912B0947C0113319F480912C0942C0F8
:10032000123319F480912D093DC0133319F48091D3
:100330002E0938C0143319F480912F0933C01533B6
:1003400019F4809130092EC0163319F480913109C7
:1003500029C0173319F48091320924C0183319F4D5
:10036000809133091FC0193319F4809134091AC0E0
:10037000153419F48091360915C0163419F480919A
:10038000370910C01F3519F480913B090BC01123A8
:1003900019F480913C0906C01D3211F08EE702C0AD
:1003A00080913D090E9468011F910895EF92FF928C
:1003B0000F931F937C012C98FC0180810E94820185
:1003C00000ED17E0C8010197F1F72C9A2D98F7017D
:1003D00081810E948201C8010197F1F72D9A2E9820
:1003E000F70182810E948201C8010197F1F72E9ADC
:1003F0002F98F70183810E948201C8010197F1F7CC
:100400002F9A1F910F91FF90EF900895469A80E2E6
:100410009EE4FC013197F1F7479AFC013197F1F71F
:100420008F9AFC013197F1F78E9AFC013197F1F721
:100430008D9AFC013197F1F78C9AFC013197F1F715
:10044000899AFC013197F1F7889A0197F1F70E9498
:10045000790108951F920F920FB60F9211248F9376
:100460009F938091730A9091740A079749F481E0F1
:100470008093750A1092760A1092740A1092730A89
:100480008091730A9091740A01969093740A8093F4
:10049000730A9F918F910F900FBE0F901F90189528
:1004A0001F920F920FB60F9211240F900FBE0F9054
:1004B0001F9018951F920F920FB60F9211248F93D1
:1004C0009F9380917800909179009093710A809326
:1004D000700A9F918F910F900FBE0F901F901895EB
:1004E0009C010996439790F0C9018D599F4F873C15
:1004F000910518F422E030E00BC029513C4F2F5CED
:10050000374018F423E030E003C0089521E030E0E4
:10051000C901089500D000D000D0EDB7FEB73196E4
:10052000ADB7BEB712969C938E9311978EE399E068
:1005300093838283758364830E945B098DB79EB722
:1005400006960FB6F8949EBF0FBE8DBF08959F927A
:10055000AF92BF92CF92DF92EF92FF920F931F93D1
:10056000CF93DF9387B1806C87B980B3836F80BBF3
:1005700084B1806F84B985B1806F85B90E947500A0
:1005800081E080936E0080936F0016BC109285000E
:100590001092840085E085BD809181008260809307
:1005A000810080917A00876080937A0080917C003E
:1005B000806480937C0080917B00806280937B00CC
:1005C00080917C00826080937C0080917A008062C0
:1005D00080937A0080917B00866080937B0080917D
:1005E0007A00806880937A0080917A008860809396
:1005F0007A0078942BE5A22E29E0B22E9EE3C92E34
:1006000099E0D92E06E49924939484E6E82EF12CFF
:100610001FE58091750A882309F4BEC00E949E00E0
:1006200081E499E00E9489006091700A7091710ADA
:1006300080E090E00E94A3000E949E008091700ADA
:100640009091710A0E94ED009093600980935F0978
:100650008BE499E00E94890060915F0970916009C4
:10066000882777FD8095982F0E94A3000E949E0006
:1006700080915F099091600963E470E00E9411012C
:100680009093600980935F0983E599E00E94890057
:1006900060915F0970916009882777FD8095982F98
:1006A0000E94A3000E949E000E949E0000D000D0E5
:1006B00000D0EDB7FEB73196ADB7BEB71296BC927B
:1006C000AE921197D382C28280915F0990916009A6
:1006D000958384830E945B09C0915F09D091600972
:1006E0008DB79EB706960FB6F8949EBF0FBE8DBF0E
:1006F000CE010E9470028093720A00936109D7FDB7
:100700000EC0813039F4109362091093630980910F
:100710005B0929C0823029F0833039F50DC0813062
:1007200049F41093620980915B0980936309809179
:100730005C0919C0823059F480915B098093620989
:1007400080915C098093630980915D090CC08330BE
:1007500061F480915C098093620980915D098093C6
:10076000630980915E098093640900936509CE0155
:1007700001969093600980935F09885E934024F00E
:10078000F0926009E0925F0982E699E00E94D6014A
:100790001092750A9092760A8091760A882309F45D
:1007A00038CF82E699E00E94D60133CFA0E0B0E0D6
:1007B000ECEDF3E00C942409DC012B01FA019C918F
:1007C000923008F439C1EB018881823008F433C1DA
:1007D000943069F4843009F02FC111969C911197DF
:1007E0008981981709F428C1A7E6B9E025C18430AA
:1007F00009F421C18230A9F4923009F01DC19A0197
:10080000AD0188E0EA010990AE01E90109929E017B
:100810008150C1F7E201898111969C9189238183DE
:1008200008C1923009F407C112962D903C9013979D
:10083000EB018A819B811496AD90BD90CD90DC90A8
:100840001797EC80FD800E811F819101281B390BC9
:10085000B90137FF04C066277727621B730B60322C
:1008600071050CF061C0121613066CF537014801D2
:10087000062E04C096948794779467940A94D2F7CE
:1008800021E030E040E050E004C0220F331F441F5D
:10089000551F6A95D2F721503040404050402E21DC
:1008A0003F2140235123211531054105510521F0F8
:1008B00021E030E040E050E079018A01E628F728A5
:1008C000082919293CC0232BD1F1260E371E3501EA
:1008D0004601062E04C096948794779467940A94F0
:1008E000D2F721E030E040E050E004C0220F331F97
:1008F000441F551F6A95D2F7215030404040504068
:100900002A213B214C215D2121153105410551054D
:1009100021F021E030E040E050E059016A01A628D2
:10092000B728C828D9280BC0821593052CF01C01C4
:10093000AA24BB24650103C0EE24FF24870111967D
:100940009C91D20111968C91981709F445C0992376
:1009500039F0A80197012A193B094C095D0906C025
:10096000A60195012E193F09400B510B57FD08C0F8
:1009700011823382228224833583468357831DC0AC
:1009800081E081833382228288279927DC01821BC0
:10099000930BA40BB50B84839583A683B7830DC0FB
:1009A000220F331F441F551F2483358346835783EB
:1009B000828193810197938382832481358146814B
:1009C0005781DA01C9010197A109B1098F5F9F4FD2
:1009D000AF4FBF4328F30BC0918333822282EA0CCE
:1009E000FB1C0C1D1D1DE482F5820683178383E02A
:1009F0008083248135814681578157FF1AC0C90100
:100A0000AA2797FDA095BA2F81709070A070B07042
:100A10005695479537952795822B932BA42BB52B6D
:100A200084839583A683B783828193810196938380
:100A30008283DF0101C0D201CD01CDB7DEB7E2E193
:100A40000C944009A0E2B0E0E8E2F5E00C94300933
:100A500069837A838B839C832D833E834F8358875E
:100A6000E9E0EE2EF12CEC0EFD1ECE010196B70151
:100A70000E9450088E010F5E1F4FCE010596B801EF
:100A80000E9450088A8991E089278A8BC701B801A2
:100A9000AE01475E5F4F0E94D6030E947B07A0967F
:100AA000E6E00C944C09A0E2B0E0E9E5F5E00C9436
:100AB000300969837A838B839C832D833E834F83A4
:100AC0005887F9E0EF2EF12CEC0EFD1ECE010196B9
:100AD000B7010E9450088E010F5E1F4FCE01059690
:100AE000B8010E945008C701B801AE01475E5F4FD0
:100AF0000E94D6030E947B07A096E6E00C944C0966
:100B0000A0E2B0E0E6E8F5E00C94240969837A837A
:100B10008B839C832D833E834F835887CE01019620
:100B2000BE01675F7F4F0E945008CE010596BE014F
:100B30006F5E7F4F0E9450089985923088F08989B6
:100B40008230C8F0943019F4823051F404C08430FB
:100B500029F4923081F487E699E0C6C0923049F4D6
:100B600020E09A858A89981321E02A87CE01099688
:100B7000BBC0823049F420E09A858A89981321E02D
:100B80002A8BCE014196B0C02D843E844F84588874
:100B90006D887E888F88988CEE24FF248701AA2494
:100BA000BB24650140E050E060E070E0E0E0F0E090
:100BB000C10181709070892BE9F0E60CF71C081DCB
:100BC000191D9A01AB012A0D3B1D4C1D5D1D80E0D6
:100BD00090E0A0E0B0E0E614F7040805190520F461
:100BE00081E090E0A0E0B0E0BA01A901480F591FF0
:100BF0006A1F7B1FAA0CBB1CCC1CDD1C97FE08C007
:100C000081E090E0A0E0B0E0A82AB92ACA2ADB2A55
:100C10003196E032F10549F0660C771C881C991C6E
:100C20005694479437942794C3CFFA85EA892B8941
:100C30003C898B859C85280F391F2E5F3F4F17C03D
:100C4000CA0181709070892B61F016950795F79411
:100C5000E79480E090E0A0E0B0E8E82AF92A0A2BC7
:100C60001B2B76956795579547952F5F3F4F77FDDF
:100C7000E7CF0CC0440F551F661F771F17FD41605B
:100C8000EE0CFF1C001F111F21503040403090E03F
:100C9000590790E0690790E4790760F32B8F3C8F48
:100CA000DB01CA018F779070A070B070803491051D
:100CB000A105B10561F447FD0AC0E114F104010585
:100CC000110529F0405C5F4F6F4F7F4F40781A8EBF
:100CD000FE1711F081E08A8F4D8F5E8F6F8F78A3A2
:100CE00083E0898FCE0149960E947B07A096E2E1BE
:100CF0000C944009A8E0B0E0E0E8F6E00C942D097F
:100D00009B01AC0183E08983DA01C9018827B7FD23
:100D100083959927AA27BB27B82E211531054105B0
:100D2000510519F482E089833AC08823A9F0203064
:100D300080E0380780E0480780E8580729F460E041
:100D400070E080E09FEC30C0EE24FF248701E21ABF
:100D5000F30A040B150B02C079018A018EE1C82E3B
:100D6000D12CDC82CB82ED82FE820F831887C801F2
:100D7000B7010E942C0701971816190684F4082E53
:100D800004C0EE0CFF1C001F111F0A94D2F7ED8265
:100D9000FE820F831887C81AD90ADC82CB82BA82F6
:100DA000CE0101960E947B072896E9E00C94490940
:100DB000ACE0B0E0EEEDF6E00C94340969837A83A0
:100DC0008B839C83CE010196BE016B5F7F4F0E9497
:100DD00050088D81823061F1823050F1843021F4ED
:100DE0008E81882351F12EC02F81388537FD20C098
:100DF0006E812F3131051CF06623F9F023C08EE19E
:100E000090E0821B930B29853A854B855C8504C055
:100E100056954795379527958A95D2F76623B1F071
:100E200050954095309521953F4F4F4F5F4F0EC0E5
:100E300020E030E040E050E009C02FEF3FEF4FEFFF
:100E40005FE704C020E030E040E050E8B901CA01AB
:100E50002C96E2E00C945009EF92FF920F931F93AF
:100E60007B018C0180E0E81680E0F80681E008074D
:100E700080E0180788F48FEFE816F10401051105EA
:100E800031F028F088E090E0A0E0B0E017C080E00A
:100E900090E0A0E0B0E012C080E0E81680E0F80644
:100EA00080E0080781E0180728F088E190E0A0E0E2
:100EB000B0E004C080E190E0A0E0B0E020E230E0EB
:100EC00040E050E0281B390B4A0B5B0B04C0169521
:100ED0000795F794E7948A95D2F7F701E159F64F11
:100EE0008081281B310941095109C9011F910F91C6
:100EF000FF90EF900895DF92EF92FF920F931F9370
:100F0000FC01E480F58006811781D18080818230E8
:100F100048F480E090E0A0E1B0E0E82AF92A0A2B4A
:100F20001B2BA5C0843009F49FC0823021F4EE242D
:100F3000FF24870105C0E114F1040105110519F42E
:100F4000E0E0F0E096C0628173819FEF623879073C
:100F50000CF05BC022E83FEF261B370B2A3131052E
:100F60002CF020E030E040E050E02AC0B801A701BA
:100F7000022E04C076956795579547950A94D2F747
:100F800081E090E0A0E0B0E004C0880F991FAA1FA4
:100F9000BB1F2A95D2F70197A109B1098E219F2184
:100FA000A023B1230097A105B10521F081E090E0D5
:100FB000A0E0B0E09A01AB01282B392B4A2B5B2B28
:100FC000DA01C9018F779070A070B07080349105FC
:100FD000A105B10539F427FF09C0205C3F4F4F4FF1
:100FE0005F4F04C0215C3F4F4F4F5F4FE0E0F0E0A8
:100FF0002030A0E03A07A0E04A07A0E45A0710F02A
:10100000E1E0F0E079018A0127C06038710564F5FC
:10101000FB01E158FF4FD801C7018F779070A07096
:10102000B07080349105A105B10539F4E7FE0DC01B
:1010300080E490E0A0E0B0E004C08FE390E0A0E0A6
:10104000B0E0E80EF91E0A1F1B1F17FF05C016951A
:101050000795F794E794319687E016950795F794EE
:10106000E7948A95D1F705C0EE24FF248701EFEFBE
:10107000F0E06E2F679566276795902F9F77D7943E
:10108000DD24D7948E2F8695492F462B582F5D2926
:10109000B701CA011F910F91FF90EF90DF90089563
:1010A000FC01DB01408151812281622F6F7770E06A
:1010B000221F2227221F9381892F880F822B282FFE
:1010C00030E0991F9927991F11969C93119721152C
:1010D0003105A9F5411551056105710511F482E04D
:1010E00037C082E89FEF13969C938E9312979A01D4
:1010F000AB0167E0220F331F441F551F6A95D1F7DC
:1011000083E08C930DC0220F331F441F551F12968E
:101110008D919C911397019713969C938E931297A0
:10112000203080E0380780E0480780E4580758F313
:1011300014962D933D934D935C93179708952F3FED
:10114000310579F4411551056105710519F484E003
:101150008C93089564FF03C081E08C9312C01C92AD
:1011600010C02F57304013963C932E93129783E074
:101170008C9387E0440F551F661F771F8A95D1F720
:10118000706414964D935D936D937C9317970895B7
:10119000629FD001739FF001829FE00DF11D649F5B
:1011A000E00DF11D929FF00D839FF00D749FF00DE7
:1011B000659FF00D9927729FB00DE11DF91F639F88
:1011C000B00DE11DF91FBD01CF011124089597FB5A
:1011D000092E05260ED057FD04D014D00AD0001CCD
:1011E00038F450954095309521953F4F4F4F5F4FC4
:1011F0000895F6F790958095709561957F4F8F4F84
:101200009F4F0895A1E21A2EAA1BBB1BFD010DC022
:10121000AA1FBB1FEE1FFF1FA217B307E407F507A6
:1012200020F0A21BB30BE40BF50B661F771F881F82
:10123000991F1A9469F760957095809590959B0118
:10124000AC01BD01CF0108952F923F924F925F9262
:101250006F927F928F929F92AF92BF92CF92DF92C6
:10126000EF92FF920F931F93CF93DF93CDB7DEB72B
:10127000CA1BDB0B0FB6F894DEBF0FBECDBF0994BF
:101280002A88398848885F846E847D848C849B8416
:10129000AA84B984C884DF80EE80FD800C811B8124
:1012A000AA81B981CE0FD11D0FB6F894DEBF0FBE53
:1012B000CDBFED010895AEE0B0E0E1E6F9E00C94B9
:1012C00032090D891E8986E08C831A8309838FEF8A
:1012D0009FE79E838D839E01275E3F4FCE0101963F
:1012E0006F89788DA9010E947F092F813885020FAF
:1012F000131FF80110822E96E4E00C944E09ABE027
:10130000B0E0E5E8F9E00C9424093C012B015A0116
:10131000FC0117821682838181FD03C06FEF7FEF8E
:10132000C6C19AE0892E1E010894211C311CF301CC
:101330002381F20123FD859123FF81912F018823D1
:1013400009F4B2C1853239F423FD859123FF8191DF
:101350002F01853229F490E0B3010E94720BE7CF90
:10136000982FFF24EE249924FFE1FF15D0F09B3243
:1013700069F09C3228F4903259F0933291F40EC007
:101380009D3249F0903369F441E024C052E0F52ADF
:1013900084E0F82A28C098E0F92A25C0E0E1FE2A76
:1013A00022C0F7FC29C0892F80538A3070F4F6FEE2
:1013B00005C0989C902C1124980E15C0E89CE02C38
:1013C0001124E80EF0E2FF2A0EC09E3229F4F6FC4A
:1013D0006BC140E4F42A07C09C3619F450E8F52AA2
:1013E00002C0983649F4F20123FD959123FF9191B3
:1013F0002F01992309F0B8CF892F8554833018F035
:101400008052833038F444E050E0A40EB51E5FE310
:1014100059830FC0933631F0933779F0933509F043
:1014200056C020C0F5018081898342E050E0A40EBF
:10143000B51E610101E010E012C0F501C080D1804D
:10144000F6FC03C06FEF7FEF02C0692D70E042E051
:1014500050E0A40EB51EC6010E94670B8C015FE729
:10146000F52214C0F501C080D180F6FC03C06FEFF7
:101470007FEF02C0692D70E042E050E0A40EB51E7F
:10148000C6010E945C0B8C0150E8F52AF3FE07C0F0
:101490001AC080E290E0B3010E94720BEA948E2D94
:1014A00090E008171907A8F30EC0F601F7FC859124
:1014B000F7FE81916F0190E0B3010E94720BE11081
:1014C000EA94015010400115110579F7EAC09436ED
:1014D00011F0993669F5F7FE08C0F50120813181D8
:1014E0004281538184E090E00AC0F50180819181BE
:1014F0009C01442737FD4095542F82E090E0A80ED0
:10150000B91E9FE6F92257FF09C0509540953095C6
:1015100021953F4F4F4F5F4FE0E8FE2ACA01B901C6
:10152000A1012AE030E00E949E0BD82ED21840C0C4
:10153000953729F41F2D1F7E2AE030E01DC01F2D96
:10154000197F9F3661F0903720F4983509F0ACC0D0
:101550000FC0903739F0983709F0A6C004C028E0D2
:1015600030E00AC0106114FD146020E130E004C0D6
:1015700014FD166020E132E017FF08C0F50160811C
:1015800071818281938144E050E008C0F50180813F
:101590009181BC0180E090E042E050E0A40EB51ED5
:1015A000A1010E949E0BD82ED2188FE7F82EF122AF
:1015B000F6FE0BC05EEFF522D91438F4F4FE07C036
:1015C000F2FC05C08FEEF82202C01D2D01C0192DBE
:1015D000F4FE0DC0FE01ED0DF11D8081803319F484
:1015E00099EEF92208C01F5FF2FE05C003C08F2DDF
:1015F000867809F01F5F0F2DF3FC14C0F0FE0FC0BA
:101600001E1510F09D2C0BC09D2C9E0C911A1E2DAA
:1016100006C080E290E0B3010E94720B1F5F1E15AE
:10162000C0F304C01E1510F4E11A01C0EE2404FF3B
:101630000FC080E390E0B3010E94720B02FF1DC057
:1016400001FD03C088E790E00EC088E590E00BC084
:10165000802F867891F001FF02C08BE201C080E20A
:10166000F7FC8DE290E0B3010E94720B06C080E3AC
:1016700090E0B3010E94720B9A94D914C0F3DA94EB
:10168000F101ED0DF11D808190E0B3010E94720B1C
:10169000DD20A9F706C080E290E0B3010E94720B42
:1016A000EA94EE20C1F743CEF30166817781CB0146
:1016B0002B96E2E10C944009FC01059061507040CA
:1016C0000110D8F7809590958E0F9F1F0895FC010B
:1016D0006150704001900110D8F7809590958E0F61
:1016E0009F1F08950F931F93CF93DF938C01EB01FE
:1016F0008B8181FF1BC082FF0DC02E813F818C81B9
:101700009D812817390764F4E881F9810193F983F1
:10171000E88306C0E885F985802F0995892B31F487
:101720008E819F8101969F838E8302C00FEF1FEFF2
:10173000C801DF91CF911F910F910895FA01AA2757
:10174000283051F1203181F1E8946F936E7F6E5F04
:101750007F4F8F4F9F4FAF4FB1E03ED0B4E03CD0B2
:10176000670F781F891F9A1FA11D680F791F8A1F95
:10177000911DA11D6A0F711D811D911DA11D20D0FC
:1017800009F468943F912AE0269F11243019305DB6
:101790003193DEF6CF010895462F4770405D4193A7
:1017A000B3E00FD0C9F7F6CF462F4F70405D4A33F4
:1017B00018F0495D31FD4052419302D0A9F7EACFBC
:1017C000B4E0A6959795879577956795BA95C9F7EB
:1017D00000976105710508959B01AC010A2E0694DE
:1017E0005795479537952795BA95C9F7620F731F97
:0C17F000841F951FA01D0895F894FFCFE2
:1017FC000A0D00256C640074656D70436F756E7412
:10180C0073203D2000D8FFD9FFDAFFDAFFDBFFDCC5
:10181C00FFDDFFDDFFDEFFDFFFDFFFE0FFE1FFE1CC
:10182C00FFE2FFE3FFE3FFE4FFE4FFE5FFE5FFE694
:10183C00FFE7FFE7FFE8FFE8FFE8FFE8FFE8FFE965
:10184C00FFE9FFE9FFE9FFE9FFEAFFEAFFEAFFEA48
:10185C00FFEAFFEBFFEBFFEBFFEBFFEBFFECFFEC2B
:10186C00FFECFFECFFECFFEDFFEDFFEDFFEDFFED0F
:10187C00FFEEFFEEFFEEFFEEFFEEFFEFFFEFFFEFF1
:10188C00FFEFFFEFFFF0FFF0FFF0FFF0FFF0FFF1D5
:10189C00FFF1FFF1FFF1FFF1FFF2FFF2FFF2FFF2B8
:1018AC00FFF2FFF3FFF3FFF3FFF3FFF3FFF4FFF49B
:1018BC00FFF4FFF4FFF4FFF5FFF5FFF5FFF5FFF57F
:1018CC00FFF6FFF6FFF6FFF6FFF6FFF7FFF7FFF761
:1018DC00FFF7FFF7FFF8FFF8FFF8FFF8FFF8FFF945
:1018EC00FFF9FFF9FFF9FFF9FFFAFFFAFFFAFFFA28
:1018FC00FFFAFFFBFFFBFFFBFFFBFFFBFFFCFFFC0B
:10190C00FFFCFFFCFFFCFFFDFFFDFFFDFFFDFFFDEE
:10191C00FFFEFFFEFFFEFFFEFFFEFFFFFFFFFFFFD0
:10192C00FFFFFFFFFF0000000000000000000001AF
:10193C00000100010001000100020002000200028F
:10194C000002000300030003000300030004000472
:10195C000004000400040005000500050005000556
:10196C000006000600060006000600070007000738
:10197C00000700070008000800080008000800091C
:10198C000009000900090009000A000A000A000AFF
:10199C00000A000B000B000B000B000B000C000CE2
:1019AC00000C000C000C000D000D000D000D000DC6
:1019BC00000E000E000E000E000E000F000F000FA8
:1019CC00000F000F0010001000100010001000118C
:1019DC00001100110011001100120012001200126F
:1019EC000012001300130013001300130014001452
:1019FC000014001400140015001500150015001536
:101A0C000016001600160016001600170017001717
:101A1C0000170017001800180018001800180019FB
:101A2C000019001900190019001A001A001A001ADE
:101A3C00001A001B001B001B001B001B001C001CC1
:101A4C00001C001C001C001D001D001D001D001DA5
:101A5C00001E001E001E001E001E001F001F001F87
:101A6C00001F001F0020002000200020002000216B
:101A7C00002100210021002100210022002200224F
:101A8C000022002200230023002300230023002433
:101A9C000024002400240024002500250025002516
:101AAC0000250026002600260026002600260027FA
:101ABC0000270027002700270028002800280028DE
:101ACC000028002800290029002900290029002AC3
:101ADC00002A002A002A002A002B002B002B002BA6
:101AEC00002B002B002C002C002C002C002C002C8C
:101AFC00002D002D002D002D002D002E002E002E6F
:101B0C00002E002E002F002F002F002F002F003052
:101B1C000030003000300030003000310031003136
:101B2C00003100310031003200320032003200321C
:101B3C000032003300330033003300330034003400
:101B4C0000340034003400340035003500350035E5
:101B5C0000350035003600360036003600360036CB
:101B6C0000370037003700370037003700380038AF
:101B7C000038003800380039003900390039003994
:101B8C000039003A003A003A003A003A003A003B79
:101B9C00003B003B003B003B003B003C003C003C5E
:101BAC00003C003C003C003D003D003D003D003D44
:101BBC00003D003E003E003E003E003E003E003F29
:101BCC00003F003F003F003F003F0040004000400E
:101BDC0000400040004000410041004100410041F4
:101BEC0000410042004200420042004200420043D9
:101BFC0000430043004300430043004400440044BE
:101C0C0000440044004400450045004500450045A3
:101C1C000045004600460046004600460047004787
:101C2C00004700470047004700480048004800486C
:101C3C000048004800490049004900490049004952
:101C4C00004A004A004A004A004A004A004B004B36
:101C5C00004B004B004B004B004C004C004C004C1C
:101C6C00004C004C004D004D004D004D004D004D02
:101C7C00004E004E004E004E004E004F004F004FE5
:101C8C00004F004F004F00500050005000500050CB
:101C9C0000500051005100510051005100510052B0
:101CAC000052005200520052005300530053005394
:101CBC00005300530054005400540054005400547A
:101CCC00005500550055005500550055005600565E
:101CDC000056005600560057005700570057005743
:101CEC000057005800580058005800580059005927
:101CFC000059005900590059005A005A005A005A0C
:101D0C00005A005B005B005B005B005B005B005CEF
:101D1C00005C005C005C005C005D005D005D005DD3
:101D2C00005D005D005E005E005E005E005E005FB8
:101D3C00005F005F005F005F00600060006000609B
:101D4C00006000610061006100610061006100627F
:101D5C000062006200620062006300630063006363
:101D6C000063006400640064006400640065006546
:101D7C00006500650065006600660066006600662A
:101D8C00006700670067006700670068006800680C
:101D9C000068006800690069006900690069006AF0
:101DAC00006A006A006A006A006B006B006B006BD3
:101DBC00006B006C006C006C006C006D006D006DB5
:101DCC00006D006D006E006E006E006E006E006F98
:101DDC00006F006F006F007000700070007000707A
:101DEC00007100710071007100720072007200725B
:101DFC00007200730073007300730074007400743D
:101E0C00007400740075007500750075007600761E
:101E1C0000760076007700770077007700780078FE
:101E2C000078007800780079007900790079007AE0
:101E3C00007A007A007A007B007B007B007B007CC0
:101E4C00007C007C007C007D007D007D007D007EA0
:101E5C00007E007E007E007F007F007F008000807F
:101E6C00008000800081008100810081008200825E
:101E7C00008200820083008300830084008400843D
:101E8C00008400850085008500860086008600861B
:101E9C0000870087008700880088008800880089F8
:101EAC0000890089008A008A008A008A008B008BD6
:101EBC00008B008C008C008C008D008D008D008EB2
:101ECC00008E008E008F008F008F0090009000908D
:101EDC00009000910091009100920092009200936A
:101EEC000093009400940094009500950095009642
:101EFC00009600960097009700970098009800981D
:101F0C0000990099009A009A009A009B009B009CF3
:101F1C00009C009C009D009D009D009E009E009FCB
:101F2C00009F009F00A000A000A100A100A200A2A1
:101F3C0000A200A300A300A400A400A500A500A576
:101F4C0000A600A600A700A700A800A800A900A949
:101F5C0000AA00AA00AB00AB00AC00AC00AD00AD19
:101F6C0000AE00AE00AF00AF00B000B000B100B1E9
:101F7C0000B200B200B300B300B400B500B500B6B7
:101F8C0000B600B700B700B800B900B900BA00BA83
:101F9C0000BB00BC00BC00BD00BE00BE00BF00C04A
:101FAC0000C000C100C200C200C300C400C500C50F
:101FBC0000C600C700C800C800C900CA00CB00CBCF
:101FCC0000CC00CD00CE00CF00D000D100D100D28B
:101FDC0000D300D400D500D600D700D800D900DA41
:101FEC0000DB00DC00DD00DE00DF00E000E200E3EF
:101FFC0000E400E500E600E800E900EA00EC00ED92
:10200C0000EE00F000F100F300F400F600F700F928
:10201C0000FB00FC00FE0000010101FC60DAF2662E
:10202C00B6BEE0FEF69C9E8E2AB67E10000225649B
:10203C0000436F756E7473203D2000446567432028
:10204C003D200064656746203D2000393939000188
:10205C00004639393946000000000000000000003D
:10206C00010202030303030404040404040404052E
:10207C000505050505050505050505050505050603
:10208C0006060606060606060606060606060606E4
:10209C0006060606060606060606060606060607D3
:1020AC0007070707070707070707070707070707B4
:1020BC0007070707070707070707070707070707A4
:1020CC000707070707070707070707070707070794
:1020DC000707070707070707070707070707070883
:1020EC000808080808080808080808080808080864
:1020FC000808080808080808080808080808080854
:10210C000808080808080808080808080808080843
:10211C000808080808080808080808080808080833
:10212C000808080808080808080808080808080823
:10213C000808080808080808080808080808080813
:10214C000808080808080808080808080808080803
:10215C0008080808080808080808080808080800FB
:00000001FF
