:1000000014C02EC02DC02CC02BC02AC029C028C0AF
:1000100027C026C025C024C023C022C021C020C0C4
:100020001FC01EC01DC01CC01BC011241FBECFE5B9
:10003000D1E0DEBFCDBF10E0A0E6B0E0E2E2F3E049
:1000400002C005900D92A037B107D9F710E0A0E7E4
:10005000B0E001C01D92A838B107E1F728D05FC118
:10006000CFCF8F92AF92CF92EF920F93DF93CF9338
:10007000CDB7DEB729970FB6F894DEBF0FBECDBF60
:1000800089836A834B832C830D83EE82CF82A8867B
:10009000898629960FB6F894DEBF0FBECDBFCF91EB
:1000A000DF910F91EF90CF90AF908F900895DF93F5
:1000B000CF93CDB7DEB7E4970FB6F894DEBF0FBE8F
:1000C000CDBFEAE3F0E083E08083E1E3F0E08CE79A
:1000D0008083E7E3F0E08EE18083E8E3F0E01082E4
:1000E00081E0898781E089831A821B821C821D82BC
:1000F0001E821F8218868981803561F58A81833C42
:1001000049F58B818F3F31F58C818F3F19F58D81BA
:100110008F3F01F58E818F3FE9F48F818F3FD1F4BE
:1001200088858F3FB9F48985813011F482E0898711
:100130008985823011F483E089878985833011F4C1
:1001400081E0898719821A821B821C821D821E828D
:100150001F82188689818A879A819B878B818C87E9
:100160009C819D878D818E879E819F878F81888BC3
:100170009885998B81E08A8B1B8A1C8A1D8A1E8A2E
:100180001F8A188E198E9A858A89980F9A8F91E006
:100190009AA38A8D9A85891708F01AA28B859B8964
:1001A000890F8B8F81E08BA39B8D8B85981708F02F
:1001B0001BA29AA18B8D980F9CA391E09DA38CA16B
:1001C0009B8D891708F01DA28BA19DA1892B8BA364
:1001D0008CA18B8F9C858C89980F9C8F91E09EA31E
:1001E0008C8D9C85891708F01EA28BA19C8D890F90
:1001F0008FA381E088A79FA18C8D981708F018A67F
:100200009EA188A5982B9EA39FA19C8F8D859D89DB
:10021000890F8D8F81E089A79D8D8D85981708F0B6
:1002200019A69EA18D8D980F9AA791E09BA78AA5EC
:100230009D8D891708F01BA689A59BA5892B89A7E9
:100240008AA58D8F9E858E89980F9E8F91E09CA7A1
:100250008E8D9E85891708F01CA689A59E8D890F15
:100260008DA781E08EA79DA58E8D981708F01EA6FC
:100270009CA58EA5982B9CA79DA59E8F8F859F8959
:10028000890F8F8F81E08FA79F8D8F85981708F03A
:100290001FA69CA58F8D980F98AB91E099AB88A96C
:1002A0009F8D891708F019AA8FA599A9892B8FA767
:1002B00088A98F8F9889888D980F98A391E09AAB21
:1002C00088A19889891708F01AAA8FA598A1890F83
:1002D0008BAB81E08CAB9BA988A1981708F01CAA76
:1002E0009AA98CA9982B9AAB9BA998A38989998DD7
:1002F000890F89A38AA999A1890F89A38A8D8983E6
:100300009B8D9A838C8D8B839D8D9C838E8D8D830D
:100310009F8D9E8388A18F8399A19887ECCEF894B6
:02032000FFCF0D
:100322007E306D79335B5F707F7B4E4F47155B3F4D
:00000001FF
