:1000000014C026C025C024C023C022C021C020C0E7
:100010001FC01EC01DC01CC01BC01AC019C018C004
:1000200017C016C015C014C013C011241FBECFE5E1
:10003000D1E0DEBFCDBF10E0A0E6B0E0E0E1F1E04E
:1000400002C005900D92A037B107D9F756D05EC017
:10005000D7CF80E282BB88EE93E028EC30E0F90154
:100060003197F1F70197D9F7929A88EE93E028EC4F
:1000700030E0F9013197F1F70197D9F780E488BBB7
:1000800088EE93E028EC30E0F9013197F1F7019721
:10009000D9F782E08BBB88EE93E028EC30E0F901E1
:1000A0003197F1F70197D9F7939A88EE93E028EC0E
:1000B00030E0F9013197F1F70197D9F7C29A88EE4C
:1000C00093E028EC30E0F9013197F1F70197D9F787
:1000D000D89A88EE93E028EC30E0F9013197F1F7F7
:1000E0000197D9F7969A88EE93E028EC30E0F90171
:1000F0003197F1F70197D9F7089583E08ABB8CE730
:1001000081BB8EE187BB18BAA4DFFECFF894FFCF86
:100110007E306D79335B5F707F7B4E4F47155B3F61
:00000001FF
